{
  "contractName": "BianTokenSale",
  "abi": [
    {
      "inputs": [
        {
          "internalType": "contract BianToken",
          "name": "_token",
          "type": "address"
        }
      ],
      "stateMutability": "nonpayable",
      "type": "constructor"
    },
    {
      "anonymous": false,
      "inputs": [
        {
          "indexed": false,
          "internalType": "address",
          "name": "_buyer",
          "type": "address"
        },
        {
          "indexed": false,
          "internalType": "uint256",
          "name": "_amount",
          "type": "uint256"
        }
      ],
      "name": "Sell",
      "type": "event"
    },
    {
      "inputs": [],
      "name": "admin",
      "outputs": [
        {
          "internalType": "address payable",
          "name": "",
          "type": "address"
        }
      ],
      "stateMutability": "view",
      "type": "function"
    },
    {
      "inputs": [],
      "name": "token",
      "outputs": [
        {
          "internalType": "contract BianToken",
          "name": "",
          "type": "address"
        }
      ],
      "stateMutability": "view",
      "type": "function"
    },
    {
      "inputs": [],
      "name": "tokenPriceUSD",
      "outputs": [
        {
          "internalType": "int256",
          "name": "",
          "type": "int256"
        }
      ],
      "stateMutability": "view",
      "type": "function"
    },
    {
      "inputs": [],
      "name": "tokensSold",
      "outputs": [
        {
          "internalType": "uint256",
          "name": "",
          "type": "uint256"
        }
      ],
      "stateMutability": "view",
      "type": "function"
    },
    {
      "inputs": [
        {
          "internalType": "uint256",
          "name": "",
          "type": "uint256"
        }
      ],
      "name": "transaction",
      "outputs": [
        {
          "internalType": "address",
          "name": "buyer",
          "type": "address"
        },
        {
          "internalType": "uint256",
          "name": "amount",
          "type": "uint256"
        }
      ],
      "stateMutability": "view",
      "type": "function"
    },
    {
      "inputs": [],
      "name": "transactionCount",
      "outputs": [
        {
          "internalType": "uint256",
          "name": "",
          "type": "uint256"
        }
      ],
      "stateMutability": "view",
      "type": "function"
    },
    {
      "stateMutability": "payable",
      "type": "receive"
    },
    {
      "inputs": [],
      "name": "getETHPrice",
      "outputs": [
        {
          "internalType": "int256",
          "name": "",
          "type": "int256"
        }
      ],
      "stateMutability": "view",
      "type": "function"
    },
    {
      "inputs": [],
      "name": "bianTokenPriceInETH",
      "outputs": [
        {
          "internalType": "int256",
          "name": "",
          "type": "int256"
        }
      ],
      "stateMutability": "view",
      "type": "function"
    },
    {
      "inputs": [],
      "name": "getETHBalance",
      "outputs": [
        {
          "internalType": "uint256",
          "name": "",
          "type": "uint256"
        }
      ],
      "stateMutability": "view",
      "type": "function"
    },
    {
      "inputs": [],
      "name": "getBianBalance",
      "outputs": [
        {
          "internalType": "string",
          "name": "",
          "type": "string"
        }
      ],
      "stateMutability": "view",
      "type": "function"
    },
    {
      "inputs": [],
      "name": "getBianBalanceSample",
      "outputs": [
        {
          "internalType": "uint256",
          "name": "",
          "type": "uint256"
        }
      ],
      "stateMutability": "view",
      "type": "function"
    },
    {
      "inputs": [],
      "name": "getAddressOfToken",
      "outputs": [
        {
          "internalType": "address",
          "name": "",
          "type": "address"
        }
      ],
      "stateMutability": "view",
      "type": "function"
    },
    {
      "inputs": [
        {
          "internalType": "uint256",
          "name": "_amount",
          "type": "uint256"
        }
      ],
      "name": "buyToken",
      "outputs": [],
      "stateMutability": "payable",
      "type": "function"
    },
    {
      "inputs": [
        {
          "internalType": "uint256",
          "name": "_amount",
          "type": "uint256"
        }
      ],
      "name": "approveAddress",
      "outputs": [],
      "stateMutability": "nonpayable",
      "type": "function"
    },
    {
      "inputs": [
        {
          "internalType": "uint256",
          "name": "_bianInput",
          "type": "uint256"
        },
        {
          "internalType": "uint256",
          "name": "_ethReceive",
          "type": "uint256"
        }
      ],
      "name": "buyETHWithBian",
      "outputs": [],
      "stateMutability": "payable",
      "type": "function"
    },
    {
      "inputs": [],
      "name": "endSale",
      "outputs": [],
      "stateMutability": "nonpayable",
      "type": "function"
    }
  ],
  "bytecode": "0x608060405230600160006101000a81548173ffffffffffffffffffffffffffffffffffffffff021916908373ffffffffffffffffffffffffffffffffffffffff1602179055503480156200005257600080fd5b5060405162001649380380620016498339818101604052810190620000789190620001db565b735f4ec3df9cbd43714fe2740f5e3616155c5b8419600560006101000a81548173ffffffffffffffffffffffffffffffffffffffff021916908373ffffffffffffffffffffffffffffffffffffffff160217905550600560048190555080600260006101000a81548173ffffffffffffffffffffffffffffffffffffffff021916908373ffffffffffffffffffffffffffffffffffffffff160217905550336000806101000a81548173ffffffffffffffffffffffffffffffffffffffff021916908373ffffffffffffffffffffffffffffffffffffffff160217905550506200020d565b600080fd5b600073ffffffffffffffffffffffffffffffffffffffff82169050919050565b60006200018f8262000162565b9050919050565b6000620001a38262000182565b9050919050565b620001b58162000196565b8114620001c157600080fd5b50565b600081519050620001d581620001aa565b92915050565b600060208284031215620001f457620001f36200015d565b5b60006200020484828501620001c4565b91505092915050565b61142c806200021d6000396000f3fe6080604052600436106100f65760003560e01c80636e9472981161008a578063a607a8d911610059578063a607a8d9146102e5578063b77bf60014610310578063f851a4401461033b578063fc0c546a14610366576100fd565b80636e9472981461024857806370c9053f1461027357806373485ba81461028f5780637c318603146102ba576100fd565b8063407fcc31116100c6578063407fcc311461018957806346bd0841146101b4578063518ab2a8146101f2578063645791fe1461021d576100fd565b80624e92221461010257806325af741c1461012d5780632d296bf114610156578063380d831b14610172576100fd565b366100fd57005b600080fd5b34801561010e57600080fd5b50610117610391565b6040516101249190610d4a565b60405180910390f35b34801561013957600080fd5b50610154600480360381019061014f9190610da7565b61043c565b005b610170600480360381019061016b9190610da7565b6104e0565b005b34801561017e57600080fd5b50610187610626565b005b34801561019557600080fd5b5061019e610820565b6040516101ab9190610ded565b60405180910390f35b3480156101c057600080fd5b506101db60048036038101906101d69190610da7565b610826565b6040516101e9929190610e58565b60405180910390f35b3480156101fe57600080fd5b5061020761086a565b6040516102149190610e81565b60405180910390f35b34801561022957600080fd5b50610232610870565b60405161023f9190610e81565b60405180910390f35b34801561025457600080fd5b5061025d610913565b60405161026a9190610e81565b60405180910390f35b61028d60048036038101906102889190610e9c565b61091b565b005b34801561029b57600080fd5b506102a4610a0f565b6040516102b19190610ded565b60405180910390f35b3480156102c657600080fd5b506102cf610a30565b6040516102dc9190610edc565b60405180910390f35b3480156102f157600080fd5b506102fa610a5a565b6040516103079190610ded565b60405180910390f35b34801561031c57600080fd5b50610325610b0a565b6040516103329190610e81565b60405180910390f35b34801561034757600080fd5b50610350610b10565b60405161035d9190610f18565b60405180910390f35b34801561037257600080fd5b5061037b610b34565b6040516103889190610f92565b60405180910390f35b6060610437600260009054906101000a900473ffffffffffffffffffffffffffffffffffffffff1673ffffffffffffffffffffffffffffffffffffffff166370a08231306040518263ffffffff1660e01b81526004016103f19190610edc565b602060405180830381865afa15801561040e573d6000803e3d6000fd5b505050506040513d601f19601f820116820180604052508101906104329190610fc2565b610b5a565b905090565b600260009054906101000a900473ffffffffffffffffffffffffffffffffffffffff1673ffffffffffffffffffffffffffffffffffffffff1663095ea7b333836040518363ffffffff1660e01b8152600401610499929190610e58565b6020604051808303816000875af11580156104b8573d6000803e3d6000fd5b505050506040513d601f19601f820116820180604052508101906104dc9190611027565b5050565b600260009054906101000a900473ffffffffffffffffffffffffffffffffffffffff1673ffffffffffffffffffffffffffffffffffffffff1663a9059cbb33836040518363ffffffff1660e01b815260040161053d929190610e58565b6020604051808303816000875af115801561055c573d6000803e3d6000fd5b505050506040513d601f19601f820116820180604052508101906105809190611027565b50600160009054906101000a900473ffffffffffffffffffffffffffffffffffffffff1673ffffffffffffffffffffffffffffffffffffffff166108fc349081150290604051600060405180830381858888f193505050501580156105e9573d6000803e3d6000fd5b507f5e5e995ce3133561afceaa51a9a154d5db228cd7525d34df5185582c18d3df09338260405161061b929190610e58565b60405180910390a150565b60008054906101000a900473ffffffffffffffffffffffffffffffffffffffff1673ffffffffffffffffffffffffffffffffffffffff163373ffffffffffffffffffffffffffffffffffffffff161461067e57600080fd5b6000600260009054906101000a900473ffffffffffffffffffffffffffffffffffffffff1673ffffffffffffffffffffffffffffffffffffffff166370a08231306040518263ffffffff1660e01b81526004016106db9190610edc565b602060405180830381865afa1580156106f8573d6000803e3d6000fd5b505050506040513d601f19601f8201168201806040525081019061071c9190610fc2565b9050600260009054906101000a900473ffffffffffffffffffffffffffffffffffffffff1673ffffffffffffffffffffffffffffffffffffffff1663a9059cbb60008054906101000a900473ffffffffffffffffffffffffffffffffffffffff16836040518363ffffffff1660e01b815260040161079b929190611075565b6020604051808303816000875af11580156107ba573d6000803e3d6000fd5b505050506040513d601f19601f820116820180604052508101906107de9190611027565b6107e757600080fd5b60008054906101000a900473ffffffffffffffffffffffffffffffffffffffff1673ffffffffffffffffffffffffffffffffffffffff16ff5b60045481565b60076020528060005260406000206000915090508060000160009054906101000a900473ffffffffffffffffffffffffffffffffffffffff16908060010154905082565b60035481565b6000600260009054906101000a900473ffffffffffffffffffffffffffffffffffffffff1673ffffffffffffffffffffffffffffffffffffffff166370a08231306040518263ffffffff1660e01b81526004016108cd9190610edc565b602060405180830381865afa1580156108ea573d6000803e3d6000fd5b505050506040513d601f19601f8201168201806040525081019061090e9190610fc2565b905090565b600047905090565b600260009054906101000a900473ffffffffffffffffffffffffffffffffffffffff1673ffffffffffffffffffffffffffffffffffffffff166323b872dd3330856040518463ffffffff1660e01b815260040161097a9392919061109e565b6020604051808303816000875af1158015610999573d6000803e3d6000fd5b505050506040513d601f19601f820116820180604052508101906109bd9190611027565b5060003390508073ffffffffffffffffffffffffffffffffffffffff166108fc839081150290604051600060405180830381858888f19350505050158015610a09573d6000803e3d6000fd5b50505050565b600080610a1a610a5a565b905080600454610a2a9190611133565b91505090565b6000600260009054906101000a900473ffffffffffffffffffffffffffffffffffffffff16905090565b600080600560009054906101000a900473ffffffffffffffffffffffffffffffffffffffff1673ffffffffffffffffffffffffffffffffffffffff1663feaf968c6040518163ffffffff1660e01b815260040160a060405180830381865afa158015610aca573d6000803e3d6000fd5b505050506040513d601f19601f82011682018060405250810190610aee919061120b565b5050509150506305f5e10081610b049190611133565b91505090565b60065481565b60008054906101000a900473ffffffffffffffffffffffffffffffffffffffff1681565b600260009054906101000a900473ffffffffffffffffffffffffffffffffffffffff1681565b606060008203610ba1576040518060400160405280600181526020017f30000000000000000000000000000000000000000000000000000000000000008152509050610cb5565b600082905060005b60008214610bd3578080610bbc90611286565b915050600a82610bcc91906112ce565b9150610ba9565b60008167ffffffffffffffff811115610bef57610bee6112ff565b5b6040519080825280601f01601f191660200182016040528015610c215781602001600182028036833780820191505090505b5090505b60008514610cae57600182610c3a919061132e565b9150600a85610c499190611362565b6030610c559190611393565b60f81b818381518110610c6b57610c6a6113c7565b5b60200101907effffffffffffffffffffffffffffffffffffffffffffffffffffffffffffff1916908160001a905350600a85610ca791906112ce565b9450610c25565b8093505050505b919050565b600081519050919050565b600082825260208201905092915050565b60005b83811015610cf4578082015181840152602081019050610cd9565b60008484015250505050565b6000601f19601f8301169050919050565b6000610d1c82610cba565b610d268185610cc5565b9350610d36818560208601610cd6565b610d3f81610d00565b840191505092915050565b60006020820190508181036000830152610d648184610d11565b905092915050565b600080fd5b6000819050919050565b610d8481610d71565b8114610d8f57600080fd5b50565b600081359050610da181610d7b565b92915050565b600060208284031215610dbd57610dbc610d6c565b5b6000610dcb84828501610d92565b91505092915050565b6000819050919050565b610de781610dd4565b82525050565b6000602082019050610e026000830184610dde565b92915050565b600073ffffffffffffffffffffffffffffffffffffffff82169050919050565b6000610e3382610e08565b9050919050565b610e4381610e28565b82525050565b610e5281610d71565b82525050565b6000604082019050610e6d6000830185610e3a565b610e7a6020830184610e49565b9392505050565b6000602082019050610e966000830184610e49565b92915050565b60008060408385031215610eb357610eb2610d6c565b5b6000610ec185828601610d92565b9250506020610ed285828601610d92565b9150509250929050565b6000602082019050610ef16000830184610e3a565b92915050565b6000610f0282610e08565b9050919050565b610f1281610ef7565b82525050565b6000602082019050610f2d6000830184610f09565b92915050565b6000819050919050565b6000610f58610f53610f4e84610e08565b610f33565b610e08565b9050919050565b6000610f6a82610f3d565b9050919050565b6000610f7c82610f5f565b9050919050565b610f8c81610f71565b82525050565b6000602082019050610fa76000830184610f83565b92915050565b600081519050610fbc81610d7b565b92915050565b600060208284031215610fd857610fd7610d6c565b5b6000610fe684828501610fad565b91505092915050565b60008115159050919050565b61100481610fef565b811461100f57600080fd5b50565b60008151905061102181610ffb565b92915050565b60006020828403121561103d5761103c610d6c565b5b600061104b84828501611012565b91505092915050565b600061105f82610f5f565b9050919050565b61106f81611054565b82525050565b600060408201905061108a6000830185611066565b6110976020830184610e49565b9392505050565b60006060820190506110b36000830186610e3a565b6110c06020830185610e3a565b6110cd6040830184610e49565b949350505050565b7f4e487b7100000000000000000000000000000000000000000000000000000000600052601260045260246000fd5b7f4e487b7100000000000000000000000000000000000000000000000000000000600052601160045260246000fd5b600061113e82610dd4565b915061114983610dd4565b925082611159576111586110d5565b5b600160000383147f80000000000000000000000000000000000000000000000000000000000000008314161561119257611191611104565b5b828205905092915050565b600069ffffffffffffffffffff82169050919050565b6111bc8161119d565b81146111c757600080fd5b50565b6000815190506111d9816111b3565b92915050565b6111e881610dd4565b81146111f357600080fd5b50565b600081519050611205816111df565b92915050565b600080600080600060a0868803121561122757611226610d6c565b5b6000611235888289016111ca565b9550506020611246888289016111f6565b945050604061125788828901610fad565b935050606061126888828901610fad565b9250506080611279888289016111ca565b9150509295509295909350565b600061129182610d71565b91507fffffffffffffffffffffffffffffffffffffffffffffffffffffffffffffffff82036112c3576112c2611104565b5b600182019050919050565b60006112d982610d71565b91506112e483610d71565b9250826112f4576112f36110d5565b5b828204905092915050565b7f4e487b7100000000000000000000000000000000000000000000000000000000600052604160045260246000fd5b600061133982610d71565b915061134483610d71565b925082820390508181111561135c5761135b611104565b5b92915050565b600061136d82610d71565b915061137883610d71565b925082611388576113876110d5565b5b828206905092915050565b600061139e82610d71565b91506113a983610d71565b92508282019050808211156113c1576113c0611104565b5b92915050565b7f4e487b7100000000000000000000000000000000000000000000000000000000600052603260045260246000fdfea264697066735822122059c50c56bced4cf4bf3d18c9b255e43fc13c4b6cc64a48afb6711f4e325081d264736f6c63430008100033",
  "immutableReferences": {},
  "source": "// SPDX-License-Identifier: MIT\r\npragma solidity ^0.8.16; \r\n\r\nimport './BianToken.sol';\r\nimport \"@chainlink/contracts/src/v0.8/interfaces/AggregatorV3Interface.sol\";\r\nimport \"@openzeppelin/contracts/utils/Strings.sol\";\r\n\r\n\r\n\r\ncontract BianTokenSale {\r\n    address payable public admin;\r\n    // ethFunds is like the reserve ?? \r\n    address payable private ethFunds = payable(address(this));\r\n    BianToken public token;\r\n    uint256 public tokensSold; \r\n    int public tokenPriceUSD;\r\n    AggregatorV3Interface internal priceFeed;\r\n    \r\n    // initialized at 0. \r\n    uint256 public transactionCount; \r\n\r\n    event Sell(address _buyer, uint256 _amount); \r\n\r\n    struct Transaction {\r\n        address buyer;\r\n        uint256 amount;\r\n    }\r\n\r\n    mapping(uint256 => Transaction) public transaction;\r\n\r\n    constructor(BianToken _token) {\r\n        priceFeed = AggregatorV3Interface(0x5f4eC3Df9cbd43714FE2740f5E3616155c5b8419); \r\n        tokenPriceUSD = 5;\r\n        token = _token;\r\n        admin = payable(msg.sender); \r\n    }\r\n\r\n   function getETHPrice() public view returns (int) {\r\n        (, int price, , , ) = priceFeed.latestRoundData();\r\n        return (price / 10**8);\r\n    }\r\n\r\n    function bianTokenPriceInETH() public view returns(int) {\r\n        int ethPrice = getETHPrice();\r\n        return tokenPriceUSD / ethPrice;\r\n    }\r\n\r\n    function getETHBalance() public view returns(uint256) {\r\n        return address(this).balance; \r\n    }\r\n\r\n    function getBianBalance() public view returns(string memory) {\r\n        return Strings.toString(IERC20(address(token)).balanceOf(address(this))); \r\n    }\r\n    function getBianBalanceSample() public view returns(uint256) {\r\n       return IERC20(address(token)).balanceOf(address(this)); \r\n    }\r\n    function getAddressOfToken() public view returns(address) {\r\n        return address(token); \r\n    }\r\n\r\n    // ETH --> BIAN\r\n    function buyToken(uint256 _amount) public payable {\r\n        // int bianTokenPriceETH = bianTokenPriceInETH();\r\n        // require(int(msg.value) >= bianTokenPriceETH * int(_amount)); \r\n        // require(address(this).balance >= _amount);\r\n       \r\n        // buyer receiving token from vault? \r\n        token.transfer(msg.sender, _amount);\r\n        // transfer the ETH of the buyer to us. \r\n        ethFunds.transfer(msg.value);\r\n\r\n        // tokensSold += _amount; \r\n        // transaction[transactionCount] = Transaction(msg.sender, _amount);\r\n        // transactionCount++;\r\n        emit Sell(msg.sender, _amount);\r\n    }\r\n\r\n    function approveAddress(uint256 _amount) public {\r\n        token.approve(msg.sender, _amount); \r\n    }\r\n\r\n\r\n\r\n    // BIAN --> ETH\r\n    function buyETHWithBian(uint256 _bianInput, uint256 _ethReceive) public payable {\r\n       \r\n        // token.approve(address(this), _bianInput);\r\n        token.transferFrom(msg.sender, address(this), _bianInput);\r\n        address payable receiver = payable(msg.sender);\r\n        receiver.transfer(_ethReceive); \r\n\r\n\r\n       /* \r\n     // int bianTokenPriceETH = bianTokenPriceInETH();\r\n        // require(int(msg.value) >= bianTokenPriceETH * int(_amount)); \r\n   \r\n        // IERC20(token).transferFrom(msg.sender, address(this), _amount);\r\n        token.approve(msg.sender, msg.value); \r\n        token.transferFrom(msg.sender, address(this), msg.value); \r\n        require(_amount > 0); \r\n        // require(token.transfer(address(this), msg.value)); \r\n        // ethFunds.transfer(msg.sender, _amount); \r\n    */ \r\n\r\n\r\n    }\r\n\r\n    function endSale() public {\r\n        // only the admin can self destruct. \r\n        require(msg.sender == admin);\r\n        uint256 amount = token.balanceOf(address(this));\r\n        require(token.transfer(admin, amount)); \r\n        selfdestruct(payable(admin));\r\n    }\r\n\r\n    receive() external payable {\r\n\r\n    }\r\n\r\n}",
  "sourcePath": "C:\\Users\\bosto\\Desktop\\ERC20-Project\\contracts\\BianTokenSale.sol",
  "compiler": {
    "name": "solc",
    "version": "0.8.16+commit.07a7930e.Emscripten.clang"
  },
  "schemaVersion": "3.4.9",
  "updatedAt": "2022-11-06T11:24:35.602Z",
  "devdoc": {
    "kind": "dev",
    "methods": {},
    "version": 1
  },
  "userdoc": {
    "kind": "user",
    "methods": {},
    "version": 1
  }
}