{
  "contractName": "BianToken",
  "abi": [
    {
      "inputs": [],
      "stateMutability": "nonpayable",
      "type": "constructor"
    },
    {
      "anonymous": false,
      "inputs": [
        {
          "indexed": true,
          "internalType": "address",
          "name": "owner",
          "type": "address"
        },
        {
          "indexed": true,
          "internalType": "address",
          "name": "spender",
          "type": "address"
        },
        {
          "indexed": false,
          "internalType": "uint256",
          "name": "value",
          "type": "uint256"
        }
      ],
      "name": "Approval",
      "type": "event"
    },
    {
      "anonymous": false,
      "inputs": [
        {
          "indexed": true,
          "internalType": "address",
          "name": "from",
          "type": "address"
        },
        {
          "indexed": true,
          "internalType": "address",
          "name": "to",
          "type": "address"
        },
        {
          "indexed": false,
          "internalType": "uint256",
          "name": "value",
          "type": "uint256"
        }
      ],
      "name": "Transfer",
      "type": "event"
    },
    {
      "inputs": [
        {
          "internalType": "address",
          "name": "owner",
          "type": "address"
        },
        {
          "internalType": "address",
          "name": "spender",
          "type": "address"
        }
      ],
      "name": "allowance",
      "outputs": [
        {
          "internalType": "uint256",
          "name": "",
          "type": "uint256"
        }
      ],
      "stateMutability": "view",
      "type": "function",
      "constant": true
    },
    {
      "inputs": [
        {
          "internalType": "address",
          "name": "spender",
          "type": "address"
        },
        {
          "internalType": "uint256",
          "name": "amount",
          "type": "uint256"
        }
      ],
      "name": "approve",
      "outputs": [
        {
          "internalType": "bool",
          "name": "",
          "type": "bool"
        }
      ],
      "stateMutability": "nonpayable",
      "type": "function"
    },
    {
      "inputs": [
        {
          "internalType": "address",
          "name": "account",
          "type": "address"
        }
      ],
      "name": "balanceOf",
      "outputs": [
        {
          "internalType": "uint256",
          "name": "",
          "type": "uint256"
        }
      ],
      "stateMutability": "view",
      "type": "function",
      "constant": true
    },
    {
      "inputs": [],
      "name": "decimals",
      "outputs": [
        {
          "internalType": "uint8",
          "name": "",
          "type": "uint8"
        }
      ],
      "stateMutability": "view",
      "type": "function",
      "constant": true
    },
    {
      "inputs": [
        {
          "internalType": "address",
          "name": "spender",
          "type": "address"
        },
        {
          "internalType": "uint256",
          "name": "subtractedValue",
          "type": "uint256"
        }
      ],
      "name": "decreaseAllowance",
      "outputs": [
        {
          "internalType": "bool",
          "name": "",
          "type": "bool"
        }
      ],
      "stateMutability": "nonpayable",
      "type": "function"
    },
    {
      "inputs": [
        {
          "internalType": "address",
          "name": "spender",
          "type": "address"
        },
        {
          "internalType": "uint256",
          "name": "addedValue",
          "type": "uint256"
        }
      ],
      "name": "increaseAllowance",
      "outputs": [
        {
          "internalType": "bool",
          "name": "",
          "type": "bool"
        }
      ],
      "stateMutability": "nonpayable",
      "type": "function"
    },
    {
      "inputs": [],
      "name": "name",
      "outputs": [
        {
          "internalType": "string",
          "name": "",
          "type": "string"
        }
      ],
      "stateMutability": "view",
      "type": "function",
      "constant": true
    },
    {
      "inputs": [],
      "name": "symbol",
      "outputs": [
        {
          "internalType": "string",
          "name": "",
          "type": "string"
        }
      ],
      "stateMutability": "view",
      "type": "function",
      "constant": true
    },
    {
      "inputs": [],
      "name": "token",
      "outputs": [
        {
          "internalType": "contract BianToken",
          "name": "",
          "type": "address"
        }
      ],
      "stateMutability": "view",
      "type": "function",
      "constant": true
    },
    {
      "inputs": [],
      "name": "totalSupply",
      "outputs": [
        {
          "internalType": "uint256",
          "name": "",
          "type": "uint256"
        }
      ],
      "stateMutability": "view",
      "type": "function",
      "constant": true
    },
    {
      "inputs": [
        {
          "internalType": "address",
          "name": "to",
          "type": "address"
        },
        {
          "internalType": "uint256",
          "name": "amount",
          "type": "uint256"
        }
      ],
      "name": "transfer",
      "outputs": [
        {
          "internalType": "bool",
          "name": "",
          "type": "bool"
        }
      ],
      "stateMutability": "nonpayable",
      "type": "function"
    },
    {
      "inputs": [
        {
          "internalType": "address",
          "name": "from",
          "type": "address"
        },
        {
          "internalType": "address",
          "name": "to",
          "type": "address"
        },
        {
          "internalType": "uint256",
          "name": "amount",
          "type": "uint256"
        }
      ],
      "name": "transferFrom",
      "outputs": [
        {
          "internalType": "bool",
          "name": "",
          "type": "bool"
        }
      ],
      "stateMutability": "nonpayable",
      "type": "function"
    }
  ],
  "bytecode": "0x60806040523480156200001157600080fd5b506040518060400160405280600981526020017f4269616e546f6b656e00000000000000000000000000000000000000000000008152506040518060400160405280600481526020017f4249414e0000000000000000000000000000000000000000000000000000000081525081600390816200008f9190620004c1565b508060049081620000a19190620004c1565b505050620000bf33683635c9adc5dea00000620000c560201b60201c565b620006c3565b600073ffffffffffffffffffffffffffffffffffffffff168273ffffffffffffffffffffffffffffffffffffffff160362000137576040517f08c379a00000000000000000000000000000000000000000000000000000000081526004016200012e9062000609565b60405180910390fd5b6200014b600083836200023d60201b60201c565b80600260008282546200015f91906200065a565b92505081905550806000808473ffffffffffffffffffffffffffffffffffffffff1673ffffffffffffffffffffffffffffffffffffffff1681526020019081526020016000206000828254620001b691906200065a565b925050819055508173ffffffffffffffffffffffffffffffffffffffff16600073ffffffffffffffffffffffffffffffffffffffff167fddf252ad1be2c89b69c2b068fc378daa952ba7f163c4a11628f55a4df523b3ef836040516200021d9190620006a6565b60405180910390a362000239600083836200024260201b60201c565b5050565b505050565b505050565b600081519050919050565b7f4e487b7100000000000000000000000000000000000000000000000000000000600052604160045260246000fd5b7f4e487b7100000000000000000000000000000000000000000000000000000000600052602260045260246000fd5b60006002820490506001821680620002c957607f821691505b602082108103620002df57620002de62000281565b5b50919050565b60008190508160005260206000209050919050565b60006020601f8301049050919050565b600082821b905092915050565b600060088302620003497fffffffffffffffffffffffffffffffffffffffffffffffffffffffffffffffff826200030a565b6200035586836200030a565b95508019841693508086168417925050509392505050565b6000819050919050565b6000819050919050565b6000620003a26200039c62000396846200036d565b62000377565b6200036d565b9050919050565b6000819050919050565b620003be8362000381565b620003d6620003cd82620003a9565b84845462000317565b825550505050565b600090565b620003ed620003de565b620003fa818484620003b3565b505050565b5b81811015620004225762000416600082620003e3565b60018101905062000400565b5050565b601f82111562000471576200043b81620002e5565b6200044684620002fa565b8101602085101562000456578190505b6200046e6200046585620002fa565b830182620003ff565b50505b505050565b600082821c905092915050565b6000620004966000198460080262000476565b1980831691505092915050565b6000620004b1838362000483565b9150826002028217905092915050565b620004cc8262000247565b67ffffffffffffffff811115620004e857620004e762000252565b5b620004f48254620002b0565b6200050182828562000426565b600060209050601f83116001811462000539576000841562000524578287015190505b620005308582620004a3565b865550620005a0565b601f1984166200054986620002e5565b60005b8281101562000573578489015182556001820191506020850194506020810190506200054c565b868310156200059357848901516200058f601f89168262000483565b8355505b6001600288020188555050505b505050505050565b600082825260208201905092915050565b7f45524332303a206d696e7420746f20746865207a65726f206164647265737300600082015250565b6000620005f1601f83620005a8565b9150620005fe82620005b9565b602082019050919050565b600060208201905081810360008301526200062481620005e2565b9050919050565b7f4e487b7100000000000000000000000000000000000000000000000000000000600052601160045260246000fd5b600062000667826200036d565b915062000674836200036d565b92508282019050808211156200068f576200068e6200062b565b5b92915050565b620006a0816200036d565b82525050565b6000602082019050620006bd600083018462000695565b92915050565b61130180620006d36000396000f3fe608060405234801561001057600080fd5b50600436106100b45760003560e01c806370a082311161007157806370a08231146101a357806395d89b41146101d3578063a457c2d7146101f1578063a9059cbb14610221578063dd62ed3e14610251578063fc0c546a14610281576100b4565b806306fdde03146100b9578063095ea7b3146100d757806318160ddd1461010757806323b872dd14610125578063313ce567146101555780633950935114610173575b600080fd5b6100c161029f565b6040516100ce9190610b64565b60405180910390f35b6100f160048036038101906100ec9190610c1f565b610331565b6040516100fe9190610c7a565b60405180910390f35b61010f610354565b60405161011c9190610ca4565b60405180910390f35b61013f600480360381019061013a9190610cbf565b61035e565b60405161014c9190610c7a565b60405180910390f35b61015d61038d565b60405161016a9190610d2e565b60405180910390f35b61018d60048036038101906101889190610c1f565b610396565b60405161019a9190610c7a565b60405180910390f35b6101bd60048036038101906101b89190610d49565b6103cd565b6040516101ca9190610ca4565b60405180910390f35b6101db610415565b6040516101e89190610b64565b60405180910390f35b61020b60048036038101906102069190610c1f565b6104a7565b6040516102189190610c7a565b60405180910390f35b61023b60048036038101906102369190610c1f565b61051e565b6040516102489190610c7a565b60405180910390f35b61026b60048036038101906102669190610d76565b610541565b6040516102789190610ca4565b60405180910390f35b6102896105c8565b6040516102969190610e15565b60405180910390f35b6060600380546102ae90610e5f565b80601f01602080910402602001604051908101604052809291908181526020018280546102da90610e5f565b80156103275780601f106102fc57610100808354040283529160200191610327565b820191906000526020600020905b81548152906001019060200180831161030a57829003601f168201915b5050505050905090565b60008061033c6105ee565b90506103498185856105f6565b600191505092915050565b6000600254905090565b6000806103696105ee565b90506103768582856107bf565b61038185858561084b565b60019150509392505050565b60006012905090565b6000806103a16105ee565b90506103c28185856103b38589610541565b6103bd9190610ebf565b6105f6565b600191505092915050565b60008060008373ffffffffffffffffffffffffffffffffffffffff1673ffffffffffffffffffffffffffffffffffffffff168152602001908152602001600020549050919050565b60606004805461042490610e5f565b80601f016020809104026020016040519081016040528092919081815260200182805461045090610e5f565b801561049d5780601f106104725761010080835404028352916020019161049d565b820191906000526020600020905b81548152906001019060200180831161048057829003601f168201915b5050505050905090565b6000806104b26105ee565b905060006104c08286610541565b905083811015610505576040517f08c379a00000000000000000000000000000000000000000000000000000000081526004016104fc90610f65565b60405180910390fd5b61051282868684036105f6565b60019250505092915050565b6000806105296105ee565b905061053681858561084b565b600191505092915050565b6000600160008473ffffffffffffffffffffffffffffffffffffffff1673ffffffffffffffffffffffffffffffffffffffff16815260200190815260200160002060008373ffffffffffffffffffffffffffffffffffffffff1673ffffffffffffffffffffffffffffffffffffffff16815260200190815260200160002054905092915050565b600560009054906101000a900473ffffffffffffffffffffffffffffffffffffffff1681565b600033905090565b600073ffffffffffffffffffffffffffffffffffffffff168373ffffffffffffffffffffffffffffffffffffffff1603610665576040517f08c379a000000000000000000000000000000000000000000000000000000000815260040161065c90610ff7565b60405180910390fd5b600073ffffffffffffffffffffffffffffffffffffffff168273ffffffffffffffffffffffffffffffffffffffff16036106d4576040517f08c379a00000000000000000000000000000000000000000000000000000000081526004016106cb90611089565b60405180910390fd5b80600160008573ffffffffffffffffffffffffffffffffffffffff1673ffffffffffffffffffffffffffffffffffffffff16815260200190815260200160002060008473ffffffffffffffffffffffffffffffffffffffff1673ffffffffffffffffffffffffffffffffffffffff168152602001908152602001600020819055508173ffffffffffffffffffffffffffffffffffffffff168373ffffffffffffffffffffffffffffffffffffffff167f8c5be1e5ebec7d5bd14f71427d1e84f3dd0314c0f7b2291e5b200ac8c7c3b925836040516107b29190610ca4565b60405180910390a3505050565b60006107cb8484610541565b90507fffffffffffffffffffffffffffffffffffffffffffffffffffffffffffffffff81146108455781811015610837576040517f08c379a000000000000000000000000000000000000000000000000000000000815260040161082e906110f5565b60405180910390fd5b61084484848484036105f6565b5b50505050565b600073ffffffffffffffffffffffffffffffffffffffff168373ffffffffffffffffffffffffffffffffffffffff16036108ba576040517f08c379a00000000000000000000000000000000000000000000000000000000081526004016108b190611187565b60405180910390fd5b600073ffffffffffffffffffffffffffffffffffffffff168273ffffffffffffffffffffffffffffffffffffffff1603610929576040517f08c379a000000000000000000000000000000000000000000000000000000000815260040161092090611219565b60405180910390fd5b610934838383610aca565b60008060008573ffffffffffffffffffffffffffffffffffffffff1673ffffffffffffffffffffffffffffffffffffffff168152602001908152602001600020549050818110156109ba576040517f08c379a00000000000000000000000000000000000000000000000000000000081526004016109b1906112ab565b60405180910390fd5b8181036000808673ffffffffffffffffffffffffffffffffffffffff1673ffffffffffffffffffffffffffffffffffffffff16815260200190815260200160002081905550816000808573ffffffffffffffffffffffffffffffffffffffff1673ffffffffffffffffffffffffffffffffffffffff1681526020019081526020016000206000828254610a4d9190610ebf565b925050819055508273ffffffffffffffffffffffffffffffffffffffff168473ffffffffffffffffffffffffffffffffffffffff167fddf252ad1be2c89b69c2b068fc378daa952ba7f163c4a11628f55a4df523b3ef84604051610ab19190610ca4565b60405180910390a3610ac4848484610acf565b50505050565b505050565b505050565b600081519050919050565b600082825260208201905092915050565b60005b83811015610b0e578082015181840152602081019050610af3565b60008484015250505050565b6000601f19601f8301169050919050565b6000610b3682610ad4565b610b408185610adf565b9350610b50818560208601610af0565b610b5981610b1a565b840191505092915050565b60006020820190508181036000830152610b7e8184610b2b565b905092915050565b600080fd5b600073ffffffffffffffffffffffffffffffffffffffff82169050919050565b6000610bb682610b8b565b9050919050565b610bc681610bab565b8114610bd157600080fd5b50565b600081359050610be381610bbd565b92915050565b6000819050919050565b610bfc81610be9565b8114610c0757600080fd5b50565b600081359050610c1981610bf3565b92915050565b60008060408385031215610c3657610c35610b86565b5b6000610c4485828601610bd4565b9250506020610c5585828601610c0a565b9150509250929050565b60008115159050919050565b610c7481610c5f565b82525050565b6000602082019050610c8f6000830184610c6b565b92915050565b610c9e81610be9565b82525050565b6000602082019050610cb96000830184610c95565b92915050565b600080600060608486031215610cd857610cd7610b86565b5b6000610ce686828701610bd4565b9350506020610cf786828701610bd4565b9250506040610d0886828701610c0a565b9150509250925092565b600060ff82169050919050565b610d2881610d12565b82525050565b6000602082019050610d436000830184610d1f565b92915050565b600060208284031215610d5f57610d5e610b86565b5b6000610d6d84828501610bd4565b91505092915050565b60008060408385031215610d8d57610d8c610b86565b5b6000610d9b85828601610bd4565b9250506020610dac85828601610bd4565b9150509250929050565b6000819050919050565b6000610ddb610dd6610dd184610b8b565b610db6565b610b8b565b9050919050565b6000610ded82610dc0565b9050919050565b6000610dff82610de2565b9050919050565b610e0f81610df4565b82525050565b6000602082019050610e2a6000830184610e06565b92915050565b7f4e487b7100000000000000000000000000000000000000000000000000000000600052602260045260246000fd5b60006002820490506001821680610e7757607f821691505b602082108103610e8a57610e89610e30565b5b50919050565b7f4e487b7100000000000000000000000000000000000000000000000000000000600052601160045260246000fd5b6000610eca82610be9565b9150610ed583610be9565b9250828201905080821115610eed57610eec610e90565b5b92915050565b7f45524332303a2064656372656173656420616c6c6f77616e63652062656c6f7760008201527f207a65726f000000000000000000000000000000000000000000000000000000602082015250565b6000610f4f602583610adf565b9150610f5a82610ef3565b604082019050919050565b60006020820190508181036000830152610f7e81610f42565b9050919050565b7f45524332303a20617070726f76652066726f6d20746865207a65726f2061646460008201527f7265737300000000000000000000000000000000000000000000000000000000602082015250565b6000610fe1602483610adf565b9150610fec82610f85565b604082019050919050565b6000602082019050818103600083015261101081610fd4565b9050919050565b7f45524332303a20617070726f766520746f20746865207a65726f20616464726560008201527f7373000000000000000000000000000000000000000000000000000000000000602082015250565b6000611073602283610adf565b915061107e82611017565b604082019050919050565b600060208201905081810360008301526110a281611066565b9050919050565b7f45524332303a20696e73756666696369656e7420616c6c6f77616e6365000000600082015250565b60006110df601d83610adf565b91506110ea826110a9565b602082019050919050565b6000602082019050818103600083015261110e816110d2565b9050919050565b7f45524332303a207472616e736665722066726f6d20746865207a65726f20616460008201527f6472657373000000000000000000000000000000000000000000000000000000602082015250565b6000611171602583610adf565b915061117c82611115565b604082019050919050565b600060208201905081810360008301526111a081611164565b9050919050565b7f45524332303a207472616e7366657220746f20746865207a65726f206164647260008201527f6573730000000000000000000000000000000000000000000000000000000000602082015250565b6000611203602383610adf565b915061120e826111a7565b604082019050919050565b60006020820190508181036000830152611232816111f6565b9050919050565b7f45524332303a207472616e7366657220616d6f756e742065786365656473206260008201527f616c616e63650000000000000000000000000000000000000000000000000000602082015250565b6000611295602683610adf565b91506112a082611239565b604082019050919050565b600060208201905081810360008301526112c481611288565b905091905056fea2646970667358221220b1061ea271d6782ad139177333f9407beb36f53708761b24a4849fc30b2597aa64736f6c63430008100033",
  "immutableReferences": {},
  "source": "// SPDX-License-Identifier: MIT\r\n\r\npragma solidity ^0.8.16; \r\nimport '@openzeppelin/contracts/token/ERC20/ERC20.sol';\r\n\r\n\r\n\r\n\r\n\r\ncontract BianToken is ERC20 {\r\n     BianToken public token;\r\n    constructor() ERC20(\"BianToken\", \"BIAN\") {\r\n        _mint(msg.sender, 1000 * 10**18); \r\n    }\r\n\r\n     \r\n\r\n    \r\n   \r\n}",
  "sourcePath": "C:\\Users\\bosto\\Desktop\\ERC20-Project\\contracts\\BianToken.sol",
  "compiler": {
    "name": "solc",
    "version": "0.8.16+commit.07a7930e.Emscripten.clang"
  },
  "schemaVersion": "3.4.9",
  "updatedAt": "2022-10-23T08:47:38.109Z",
  "networkType": "ethereum",
  "devdoc": {
    "kind": "dev",
    "methods": {
      "allowance(address,address)": {
        "details": "See {IERC20-allowance}."
      },
      "approve(address,uint256)": {
        "details": "See {IERC20-approve}. NOTE: If `amount` is the maximum `uint256`, the allowance is not updated on `transferFrom`. This is semantically equivalent to an infinite approval. Requirements: - `spender` cannot be the zero address."
      },
      "balanceOf(address)": {
        "details": "See {IERC20-balanceOf}."
      },
      "decimals()": {
        "details": "Returns the number of decimals used to get its user representation. For example, if `decimals` equals `2`, a balance of `505` tokens should be displayed to a user as `5.05` (`505 / 10 ** 2`). Tokens usually opt for a value of 18, imitating the relationship between Ether and Wei. This is the value {ERC20} uses, unless this function is overridden; NOTE: This information is only used for _display_ purposes: it in no way affects any of the arithmetic of the contract, including {IERC20-balanceOf} and {IERC20-transfer}."
      },
      "decreaseAllowance(address,uint256)": {
        "details": "Atomically decreases the allowance granted to `spender` by the caller. This is an alternative to {approve} that can be used as a mitigation for problems described in {IERC20-approve}. Emits an {Approval} event indicating the updated allowance. Requirements: - `spender` cannot be the zero address. - `spender` must have allowance for the caller of at least `subtractedValue`."
      },
      "increaseAllowance(address,uint256)": {
        "details": "Atomically increases the allowance granted to `spender` by the caller. This is an alternative to {approve} that can be used as a mitigation for problems described in {IERC20-approve}. Emits an {Approval} event indicating the updated allowance. Requirements: - `spender` cannot be the zero address."
      },
      "name()": {
        "details": "Returns the name of the token."
      },
      "symbol()": {
        "details": "Returns the symbol of the token, usually a shorter version of the name."
      },
      "totalSupply()": {
        "details": "See {IERC20-totalSupply}."
      },
      "transfer(address,uint256)": {
        "details": "See {IERC20-transfer}. Requirements: - `to` cannot be the zero address. - the caller must have a balance of at least `amount`."
      },
      "transferFrom(address,address,uint256)": {
        "details": "See {IERC20-transferFrom}. Emits an {Approval} event indicating the updated allowance. This is not required by the EIP. See the note at the beginning of {ERC20}. NOTE: Does not update the allowance if the current allowance is the maximum `uint256`. Requirements: - `from` and `to` cannot be the zero address. - `from` must have a balance of at least `amount`. - the caller must have allowance for ``from``'s tokens of at least `amount`."
      }
    },
    "version": 1
  },
  "userdoc": {
    "kind": "user",
    "methods": {},
    "version": 1
  }
}