{
  "contractName": "BianTokenSale",
  "abi": [
    {
      "inputs": [
        {
          "internalType": "contract BianToken",
          "name": "_token",
          "type": "address"
        }
      ],
      "stateMutability": "nonpayable",
      "type": "constructor"
    },
    {
      "anonymous": false,
      "inputs": [
        {
          "indexed": false,
          "internalType": "address",
          "name": "_buyer",
          "type": "address"
        },
        {
          "indexed": false,
          "internalType": "uint256",
          "name": "_amount",
          "type": "uint256"
        }
      ],
      "name": "Sell",
      "type": "event"
    },
    {
      "inputs": [],
      "name": "admin",
      "outputs": [
        {
          "internalType": "address payable",
          "name": "",
          "type": "address"
        }
      ],
      "stateMutability": "view",
      "type": "function",
      "constant": true
    },
    {
      "inputs": [],
      "name": "token",
      "outputs": [
        {
          "internalType": "contract BianToken",
          "name": "",
          "type": "address"
        }
      ],
      "stateMutability": "view",
      "type": "function",
      "constant": true
    },
    {
      "inputs": [],
      "name": "tokenPriceUSD",
      "outputs": [
        {
          "internalType": "int256",
          "name": "",
          "type": "int256"
        }
      ],
      "stateMutability": "view",
      "type": "function",
      "constant": true
    },
    {
      "inputs": [],
      "name": "tokensSold",
      "outputs": [
        {
          "internalType": "uint256",
          "name": "",
          "type": "uint256"
        }
      ],
      "stateMutability": "view",
      "type": "function",
      "constant": true
    },
    {
      "inputs": [
        {
          "internalType": "uint256",
          "name": "",
          "type": "uint256"
        }
      ],
      "name": "transaction",
      "outputs": [
        {
          "internalType": "address",
          "name": "buyer",
          "type": "address"
        },
        {
          "internalType": "uint256",
          "name": "amount",
          "type": "uint256"
        }
      ],
      "stateMutability": "view",
      "type": "function",
      "constant": true
    },
    {
      "inputs": [],
      "name": "transactionCount",
      "outputs": [
        {
          "internalType": "uint256",
          "name": "",
          "type": "uint256"
        }
      ],
      "stateMutability": "view",
      "type": "function",
      "constant": true
    },
    {
      "inputs": [],
      "name": "getETHPrice",
      "outputs": [
        {
          "internalType": "int256",
          "name": "",
          "type": "int256"
        }
      ],
      "stateMutability": "view",
      "type": "function",
      "constant": true
    },
    {
      "inputs": [],
      "name": "bianTokenPriceInETH",
      "outputs": [
        {
          "internalType": "int256",
          "name": "",
          "type": "int256"
        }
      ],
      "stateMutability": "view",
      "type": "function",
      "constant": true
    },
    {
      "inputs": [
        {
          "internalType": "uint256",
          "name": "_amount",
          "type": "uint256"
        }
      ],
      "name": "buyToken",
      "outputs": [],
      "stateMutability": "payable",
      "type": "function",
      "payable": true
    },
    {
      "inputs": [],
      "name": "endSale",
      "outputs": [],
      "stateMutability": "nonpayable",
      "type": "function"
    }
  ],
  "bytecode": "0x60806040527374c0f91422412949dc63f8721fd53b280a36a368600160006101000a81548173ffffffffffffffffffffffffffffffffffffffff021916908373ffffffffffffffffffffffffffffffffffffffff1602179055503480156200006657600080fd5b506040516200111c3803806200111c83398181016040528101906200008c9190620001ef565b735f4ec3df9cbd43714fe2740f5e3616155c5b8419600560006101000a81548173ffffffffffffffffffffffffffffffffffffffff021916908373ffffffffffffffffffffffffffffffffffffffff160217905550600560048190555080600260006101000a81548173ffffffffffffffffffffffffffffffffffffffff021916908373ffffffffffffffffffffffffffffffffffffffff160217905550336000806101000a81548173ffffffffffffffffffffffffffffffffffffffff021916908373ffffffffffffffffffffffffffffffffffffffff1602179055505062000221565b600080fd5b600073ffffffffffffffffffffffffffffffffffffffff82169050919050565b6000620001a38262000176565b9050919050565b6000620001b78262000196565b9050919050565b620001c981620001aa565b8114620001d557600080fd5b50565b600081519050620001e981620001be565b92915050565b60006020828403121562000208576200020762000171565b5b60006200021884828501620001d8565b91505092915050565b610eeb80620002316000396000f3fe6080604052600436106100915760003560e01c806373485ba81161005957806373485ba81461015d578063a607a8d914610188578063b77bf600146101b3578063f851a440146101de578063fc0c546a1461020957610091565b80632d296bf114610096578063380d831b146100b2578063407fcc31146100c957806346bd0841146100f4578063518ab2a814610132575b600080fd5b6100b060048036038101906100ab91906108ba565b610234565b005b3480156100be57600080fd5b506100c7610514565b005b3480156100d557600080fd5b506100de61070e565b6040516100eb9190610900565b60405180910390f35b34801561010057600080fd5b5061011b600480360381019061011691906108ba565b610714565b60405161012992919061096b565b60405180910390f35b34801561013e57600080fd5b50610147610758565b6040516101549190610994565b60405180910390f35b34801561016957600080fd5b5061017261075e565b60405161017f9190610900565b60405180910390f35b34801561019457600080fd5b5061019d61077f565b6040516101aa9190610900565b60405180910390f35b3480156101bf57600080fd5b506101c861082f565b6040516101d59190610994565b60405180910390f35b3480156101ea57600080fd5b506101f3610835565b60405161020091906109d0565b60405180910390f35b34801561021557600080fd5b5061021e610859565b60405161022b9190610a4a565b60405180910390f35b600061023e61075e565b9050818161024c9190610a94565b34121561025857600080fd5b81600260009054906101000a900473ffffffffffffffffffffffffffffffffffffffff1673ffffffffffffffffffffffffffffffffffffffff166370a08231306040518263ffffffff1660e01b81526004016102b49190610bab565b602060405180830381865afa1580156102d1573d6000803e3d6000fd5b505050506040513d601f19601f820116820180604052508101906102f59190610bdb565b101561030057600080fd5b600260009054906101000a900473ffffffffffffffffffffffffffffffffffffffff1673ffffffffffffffffffffffffffffffffffffffff1663a9059cbb33846040518363ffffffff1660e01b815260040161035d92919061096b565b6020604051808303816000875af115801561037c573d6000803e3d6000fd5b505050506040513d601f19601f820116820180604052508101906103a09190610c40565b6103a957600080fd5b600160009054906101000a900473ffffffffffffffffffffffffffffffffffffffff1673ffffffffffffffffffffffffffffffffffffffff166108fc349081150290604051600060405180830381858888f19350505050158015610411573d6000803e3d6000fd5b5081600360008282546104249190610c6d565b9250508190555060405180604001604052803373ffffffffffffffffffffffffffffffffffffffff1681526020018381525060076000600654815260200190815260200160002060008201518160000160006101000a81548173ffffffffffffffffffffffffffffffffffffffff021916908373ffffffffffffffffffffffffffffffffffffffff16021790555060208201518160010155905050600660008154809291906104d290610ca1565b91905055507f5e5e995ce3133561afceaa51a9a154d5db228cd7525d34df5185582c18d3df09338360405161050892919061096b565b60405180910390a15050565b60008054906101000a900473ffffffffffffffffffffffffffffffffffffffff1673ffffffffffffffffffffffffffffffffffffffff163373ffffffffffffffffffffffffffffffffffffffff161461056c57600080fd5b6000600260009054906101000a900473ffffffffffffffffffffffffffffffffffffffff1673ffffffffffffffffffffffffffffffffffffffff166370a08231306040518263ffffffff1660e01b81526004016105c99190610bab565b602060405180830381865afa1580156105e6573d6000803e3d6000fd5b505050506040513d601f19601f8201168201806040525081019061060a9190610bdb565b9050600260009054906101000a900473ffffffffffffffffffffffffffffffffffffffff1673ffffffffffffffffffffffffffffffffffffffff1663a9059cbb60008054906101000a900473ffffffffffffffffffffffffffffffffffffffff16836040518363ffffffff1660e01b8152600401610689929190610d0a565b6020604051808303816000875af11580156106a8573d6000803e3d6000fd5b505050506040513d601f19601f820116820180604052508101906106cc9190610c40565b6106d557600080fd5b60008054906101000a900473ffffffffffffffffffffffffffffffffffffffff1673ffffffffffffffffffffffffffffffffffffffff16ff5b60045481565b60076020528060005260406000206000915090508060000160009054906101000a900473ffffffffffffffffffffffffffffffffffffffff16908060010154905082565b60035481565b60008061076961077f565b9050806004546107799190610d62565b91505090565b600080600560009054906101000a900473ffffffffffffffffffffffffffffffffffffffff1673ffffffffffffffffffffffffffffffffffffffff1663feaf968c6040518163ffffffff1660e01b815260040160a060405180830381865afa1580156107ef573d6000803e3d6000fd5b505050506040513d601f19601f820116820180604052508101906108139190610e3a565b5050509150506305f5e100816108299190610d62565b91505090565b60065481565b60008054906101000a900473ffffffffffffffffffffffffffffffffffffffff1681565b600260009054906101000a900473ffffffffffffffffffffffffffffffffffffffff1681565b600080fd5b6000819050919050565b61089781610884565b81146108a257600080fd5b50565b6000813590506108b48161088e565b92915050565b6000602082840312156108d0576108cf61087f565b5b60006108de848285016108a5565b91505092915050565b6000819050919050565b6108fa816108e7565b82525050565b600060208201905061091560008301846108f1565b92915050565b600073ffffffffffffffffffffffffffffffffffffffff82169050919050565b60006109468261091b565b9050919050565b6109568161093b565b82525050565b61096581610884565b82525050565b6000604082019050610980600083018561094d565b61098d602083018461095c565b9392505050565b60006020820190506109a9600083018461095c565b92915050565b60006109ba8261091b565b9050919050565b6109ca816109af565b82525050565b60006020820190506109e560008301846109c1565b92915050565b6000819050919050565b6000610a10610a0b610a068461091b565b6109eb565b61091b565b9050919050565b6000610a22826109f5565b9050919050565b6000610a3482610a17565b9050919050565b610a4481610a29565b82525050565b6000602082019050610a5f6000830184610a3b565b92915050565b7f4e487b7100000000000000000000000000000000000000000000000000000000600052601160045260246000fd5b6000610a9f826108e7565b9150610aaa836108e7565b9250827f7fffffffffffffffffffffffffffffffffffffffffffffffffffffffffffffff0482116000841360008413161615610ae957610ae8610a65565b5b817f80000000000000000000000000000000000000000000000000000000000000000583126000841260008413161615610b2657610b25610a65565b5b827f80000000000000000000000000000000000000000000000000000000000000000582126000841360008412161615610b6357610b62610a65565b5b827f7fffffffffffffffffffffffffffffffffffffffffffffffffffffffffffffff0582126000841260008412161615610ba057610b9f610a65565b5b828202905092915050565b6000602082019050610bc0600083018461094d565b92915050565b600081519050610bd58161088e565b92915050565b600060208284031215610bf157610bf061087f565b5b6000610bff84828501610bc6565b91505092915050565b60008115159050919050565b610c1d81610c08565b8114610c2857600080fd5b50565b600081519050610c3a81610c14565b92915050565b600060208284031215610c5657610c5561087f565b5b6000610c6484828501610c2b565b91505092915050565b6000610c7882610884565b9150610c8383610884565b9250828201905080821115610c9b57610c9a610a65565b5b92915050565b6000610cac82610884565b91507fffffffffffffffffffffffffffffffffffffffffffffffffffffffffffffffff8203610cde57610cdd610a65565b5b600182019050919050565b6000610cf482610a17565b9050919050565b610d0481610ce9565b82525050565b6000604082019050610d1f6000830185610cfb565b610d2c602083018461095c565b9392505050565b7f4e487b7100000000000000000000000000000000000000000000000000000000600052601260045260246000fd5b6000610d6d826108e7565b9150610d78836108e7565b925082610d8857610d87610d33565b5b600160000383147f800000000000000000000000000000000000000000000000000000000000000083141615610dc157610dc0610a65565b5b828205905092915050565b600069ffffffffffffffffffff82169050919050565b610deb81610dcc565b8114610df657600080fd5b50565b600081519050610e0881610de2565b92915050565b610e17816108e7565b8114610e2257600080fd5b50565b600081519050610e3481610e0e565b92915050565b600080600080600060a08688031215610e5657610e5561087f565b5b6000610e6488828901610df9565b9550506020610e7588828901610e25565b9450506040610e8688828901610bc6565b9350506060610e9788828901610bc6565b9250506080610ea888828901610df9565b915050929550929590935056fea2646970667358221220f3106826d3748dedbe232678ae168a71b82f8b09e11ea447a85bdfdc244598f964736f6c63430008100033",
  "immutableReferences": {},
  "source": "// SPDX-License-Identifier: MIT\r\n\r\npragma solidity ^0.8.16;\r\n\r\nimport './BianToken.sol';\r\nimport \"@chainlink/contracts/src/v0.8/interfaces/AggregatorV3Interface.sol\"; \r\n\r\ncontract BianTokenSale {\r\n    address payable public admin;\r\n    // ethFunds is like the reserve ?? \r\n    address payable private ethFunds = payable(0x74C0F91422412949Dc63f8721Fd53B280A36a368);\r\n    BianToken public token;\r\n    uint256 public tokensSold; \r\n    int public tokenPriceUSD;\r\n    AggregatorV3Interface internal priceFeed;\r\n    \r\n    // initialized at 0. \r\n    uint256 public transactionCount; \r\n\r\n    event Sell(address _buyer, uint256 _amount); \r\n\r\n    struct Transaction {\r\n        address buyer;\r\n        uint256 amount;\r\n    }\r\n\r\n    mapping(uint256 => Transaction) public transaction;\r\n\r\n    constructor(BianToken _token) {\r\n        priceFeed = AggregatorV3Interface(0x5f4eC3Df9cbd43714FE2740f5E3616155c5b8419); \r\n        tokenPriceUSD = 5;\r\n        token = _token;\r\n        admin = payable(msg.sender); \r\n    }\r\n\r\n   function getETHPrice() public view returns (int) {\r\n        (, int price, , , ) = priceFeed.latestRoundData();\r\n        return (price / 10**8);\r\n    }\r\n\r\n    function bianTokenPriceInETH() public view returns(int) {\r\n        int ethPrice = getETHPrice();\r\n        return tokenPriceUSD / ethPrice;\r\n    }\r\n\r\n    function buyToken(uint256 _amount) public payable {\r\n        int bianTokenPriceETH = bianTokenPriceInETH();\r\n        require(int(msg.value) >= bianTokenPriceETH * int(_amount)); \r\n        require(token.balanceOf(address(this)) >= _amount);\r\n       \r\n        // OpenZeppelin transfer() function is defined as follows:\r\n        /* \r\n            function transfer(address to, uint256 amount) public virtual override returns (bool) {\r\n\r\n            } \r\n\r\n\r\n\r\n        */ \r\n\r\n        // following needs to be true.\r\n\r\n        // buyer receiving token from buyer? \r\n        require(token.transfer(msg.sender, _amount));\r\n        \r\n        // vault receiving eth from buyer? \r\n        ethFunds.transfer(msg.value);\r\n        tokensSold += _amount; \r\n        transaction[transactionCount] = Transaction(msg.sender, _amount);\r\n        transactionCount++;\r\n        emit Sell(msg.sender, _amount); \r\n    }\r\n\r\n    function endSale() public {\r\n        // only the admin can self destruct. \r\n        require(msg.sender == admin);\r\n        uint256 amount = token.balanceOf(address(this));\r\n        require(token.transfer(admin, amount)); \r\n        selfdestruct(payable(admin));\r\n    }\r\n\r\n\r\n}",
  "sourcePath": "C:\\Users\\19494\\Desktop\\BianToken\\contracts\\BianTokenSale.sol",
  "compiler": {
    "name": "solc",
    "version": "0.8.16+commit.07a7930e.Emscripten.clang"
  },
  "schemaVersion": "3.4.9",
  "updatedAt": "2022-09-05T19:54:26.313Z",
  "networkType": "ethereum",
  "devdoc": {
    "kind": "dev",
    "methods": {},
    "version": 1
  },
  "userdoc": {
    "kind": "user",
    "methods": {},
    "version": 1
  }
}