{
  "contractName": "BianTokenSale",
  "abi": [
    {
      "inputs": [
        {
          "internalType": "contract BianToken",
          "name": "_token",
          "type": "address"
        }
      ],
      "stateMutability": "nonpayable",
      "type": "constructor"
    },
    {
      "anonymous": false,
      "inputs": [
        {
          "indexed": false,
          "internalType": "address",
          "name": "_buyer",
          "type": "address"
        },
        {
          "indexed": false,
          "internalType": "uint256",
          "name": "_amount",
          "type": "uint256"
        }
      ],
      "name": "Sell",
      "type": "event"
    },
    {
      "inputs": [],
      "name": "admin",
      "outputs": [
        {
          "internalType": "address payable",
          "name": "",
          "type": "address"
        }
      ],
      "stateMutability": "view",
      "type": "function",
      "constant": true
    },
    {
      "inputs": [],
      "name": "token",
      "outputs": [
        {
          "internalType": "contract BianToken",
          "name": "",
          "type": "address"
        }
      ],
      "stateMutability": "view",
      "type": "function",
      "constant": true
    },
    {
      "inputs": [],
      "name": "tokenPriceUSD",
      "outputs": [
        {
          "internalType": "int256",
          "name": "",
          "type": "int256"
        }
      ],
      "stateMutability": "view",
      "type": "function",
      "constant": true
    },
    {
      "inputs": [],
      "name": "tokensSold",
      "outputs": [
        {
          "internalType": "uint256",
          "name": "",
          "type": "uint256"
        }
      ],
      "stateMutability": "view",
      "type": "function",
      "constant": true
    },
    {
      "inputs": [
        {
          "internalType": "uint256",
          "name": "",
          "type": "uint256"
        }
      ],
      "name": "transaction",
      "outputs": [
        {
          "internalType": "address",
          "name": "buyer",
          "type": "address"
        },
        {
          "internalType": "uint256",
          "name": "amount",
          "type": "uint256"
        }
      ],
      "stateMutability": "view",
      "type": "function",
      "constant": true
    },
    {
      "inputs": [],
      "name": "transactionCount",
      "outputs": [
        {
          "internalType": "uint256",
          "name": "",
          "type": "uint256"
        }
      ],
      "stateMutability": "view",
      "type": "function",
      "constant": true
    },
    {
      "stateMutability": "payable",
      "type": "receive",
      "payable": true
    },
    {
      "inputs": [],
      "name": "getETHPrice",
      "outputs": [
        {
          "internalType": "int256",
          "name": "",
          "type": "int256"
        }
      ],
      "stateMutability": "view",
      "type": "function",
      "constant": true
    },
    {
      "inputs": [],
      "name": "bianTokenPriceInETH",
      "outputs": [
        {
          "internalType": "int256",
          "name": "",
          "type": "int256"
        }
      ],
      "stateMutability": "view",
      "type": "function",
      "constant": true
    },
    {
      "inputs": [],
      "name": "getBianBalance",
      "outputs": [
        {
          "internalType": "string",
          "name": "",
          "type": "string"
        }
      ],
      "stateMutability": "view",
      "type": "function",
      "constant": true
    },
    {
      "inputs": [
        {
          "internalType": "uint256",
          "name": "_amount",
          "type": "uint256"
        }
      ],
      "name": "buyToken",
      "outputs": [],
      "stateMutability": "payable",
      "type": "function",
      "payable": true
    },
    {
      "inputs": [],
      "name": "endSale",
      "outputs": [],
      "stateMutability": "nonpayable",
      "type": "function"
    }
  ],
  "bytecode": "0x608060405230600160006101000a81548173ffffffffffffffffffffffffffffffffffffffff021916908373ffffffffffffffffffffffffffffffffffffffff1602179055503480156200005257600080fd5b50604051620013bd380380620013bd8339818101604052810190620000789190620001db565b735f4ec3df9cbd43714fe2740f5e3616155c5b8419600560006101000a81548173ffffffffffffffffffffffffffffffffffffffff021916908373ffffffffffffffffffffffffffffffffffffffff160217905550600560048190555080600260006101000a81548173ffffffffffffffffffffffffffffffffffffffff021916908373ffffffffffffffffffffffffffffffffffffffff160217905550336000806101000a81548173ffffffffffffffffffffffffffffffffffffffff021916908373ffffffffffffffffffffffffffffffffffffffff160217905550506200020d565b600080fd5b600073ffffffffffffffffffffffffffffffffffffffff82169050919050565b60006200018f8262000162565b9050919050565b6000620001a38262000182565b9050919050565b620001b58162000196565b8114620001c157600080fd5b50565b600081519050620001d581620001aa565b92915050565b600060208284031215620001f457620001f36200015d565b5b60006200020484828501620001c4565b91505092915050565b6111a0806200021d6000396000f3fe60806040526004361061009f5760003560e01c8063518ab2a811610064578063518ab2a81461017257806373485ba81461019d578063a607a8d9146101c8578063b77bf600146101f3578063f851a4401461021e578063fc0c546a14610249576100a6565b80624e9222146100ab5780632d296bf1146100d6578063380d831b146100f2578063407fcc311461010957806346bd084114610134576100a6565b366100a657005b600080fd5b3480156100b757600080fd5b506100c0610274565b6040516100cd9190610b35565b60405180910390f35b6100f060048036038101906100eb9190610b92565b61031f565b005b3480156100fe57600080fd5b506101076105da565b005b34801561011557600080fd5b5061011e6107d4565b60405161012b9190610bd8565b60405180910390f35b34801561014057600080fd5b5061015b60048036038101906101569190610b92565b6107da565b604051610169929190610c43565b60405180910390f35b34801561017e57600080fd5b5061018761081e565b6040516101949190610c6c565b60405180910390f35b3480156101a957600080fd5b506101b2610824565b6040516101bf9190610bd8565b60405180910390f35b3480156101d457600080fd5b506101dd610845565b6040516101ea9190610bd8565b60405180910390f35b3480156101ff57600080fd5b506102086108f5565b6040516102159190610c6c565b60405180910390f35b34801561022a57600080fd5b506102336108fb565b6040516102409190610ca8565b60405180910390f35b34801561025557600080fd5b5061025e61091f565b60405161026b9190610d22565b60405180910390f35b606061031a600260009054906101000a900473ffffffffffffffffffffffffffffffffffffffff1673ffffffffffffffffffffffffffffffffffffffff166370a08231306040518263ffffffff1660e01b81526004016102d49190610d3d565b602060405180830381865afa1580156102f1573d6000803e3d6000fd5b505050506040513d601f19601f820116820180604052508101906103159190610d6d565b610945565b905090565b80600260009054906101000a900473ffffffffffffffffffffffffffffffffffffffff1673ffffffffffffffffffffffffffffffffffffffff166370a08231306040518263ffffffff1660e01b815260040161037b9190610d3d565b602060405180830381865afa158015610398573d6000803e3d6000fd5b505050506040513d601f19601f820116820180604052508101906103bc9190610d6d565b10156103c757600080fd5b600260009054906101000a900473ffffffffffffffffffffffffffffffffffffffff1673ffffffffffffffffffffffffffffffffffffffff1663a9059cbb33836040518363ffffffff1660e01b8152600401610424929190610c43565b6020604051808303816000875af1158015610443573d6000803e3d6000fd5b505050506040513d601f19601f820116820180604052508101906104679190610dd2565b61047057600080fd5b600160009054906101000a900473ffffffffffffffffffffffffffffffffffffffff1673ffffffffffffffffffffffffffffffffffffffff166108fc349081150290604051600060405180830381858888f193505050501580156104d8573d6000803e3d6000fd5b5080600360008282546104eb9190610e2e565b9250508190555060405180604001604052803373ffffffffffffffffffffffffffffffffffffffff1681526020018281525060076000600654815260200190815260200160002060008201518160000160006101000a81548173ffffffffffffffffffffffffffffffffffffffff021916908373ffffffffffffffffffffffffffffffffffffffff160217905550602082015181600101559050506006600081548092919061059990610e62565b91905055507f5e5e995ce3133561afceaa51a9a154d5db228cd7525d34df5185582c18d3df0933826040516105cf929190610c43565b60405180910390a150565b60008054906101000a900473ffffffffffffffffffffffffffffffffffffffff1673ffffffffffffffffffffffffffffffffffffffff163373ffffffffffffffffffffffffffffffffffffffff161461063257600080fd5b6000600260009054906101000a900473ffffffffffffffffffffffffffffffffffffffff1673ffffffffffffffffffffffffffffffffffffffff166370a08231306040518263ffffffff1660e01b815260040161068f9190610d3d565b602060405180830381865afa1580156106ac573d6000803e3d6000fd5b505050506040513d601f19601f820116820180604052508101906106d09190610d6d565b9050600260009054906101000a900473ffffffffffffffffffffffffffffffffffffffff1673ffffffffffffffffffffffffffffffffffffffff1663a9059cbb60008054906101000a900473ffffffffffffffffffffffffffffffffffffffff16836040518363ffffffff1660e01b815260040161074f929190610ecb565b6020604051808303816000875af115801561076e573d6000803e3d6000fd5b505050506040513d601f19601f820116820180604052508101906107929190610dd2565b61079b57600080fd5b60008054906101000a900473ffffffffffffffffffffffffffffffffffffffff1673ffffffffffffffffffffffffffffffffffffffff16ff5b60045481565b60076020528060005260406000206000915090508060000160009054906101000a900473ffffffffffffffffffffffffffffffffffffffff16908060010154905082565b60035481565b60008061082f610845565b90508060045461083f9190610f23565b91505090565b600080600560009054906101000a900473ffffffffffffffffffffffffffffffffffffffff1673ffffffffffffffffffffffffffffffffffffffff1663feaf968c6040518163ffffffff1660e01b815260040160a060405180830381865afa1580156108b5573d6000803e3d6000fd5b505050506040513d601f19601f820116820180604052508101906108d99190610ffb565b5050509150506305f5e100816108ef9190610f23565b91505090565b60065481565b60008054906101000a900473ffffffffffffffffffffffffffffffffffffffff1681565b600260009054906101000a900473ffffffffffffffffffffffffffffffffffffffff1681565b60606000820361098c576040518060400160405280600181526020017f30000000000000000000000000000000000000000000000000000000000000008152509050610aa0565b600082905060005b600082146109be5780806109a790610e62565b915050600a826109b79190611076565b9150610994565b60008167ffffffffffffffff8111156109da576109d96110a7565b5b6040519080825280601f01601f191660200182016040528015610a0c5781602001600182028036833780820191505090505b5090505b60008514610a9957600182610a2591906110d6565b9150600a85610a34919061110a565b6030610a409190610e2e565b60f81b818381518110610a5657610a5561113b565b5b60200101907effffffffffffffffffffffffffffffffffffffffffffffffffffffffffffff1916908160001a905350600a85610a929190611076565b9450610a10565b8093505050505b919050565b600081519050919050565b600082825260208201905092915050565b60005b83811015610adf578082015181840152602081019050610ac4565b60008484015250505050565b6000601f19601f8301169050919050565b6000610b0782610aa5565b610b118185610ab0565b9350610b21818560208601610ac1565b610b2a81610aeb565b840191505092915050565b60006020820190508181036000830152610b4f8184610afc565b905092915050565b600080fd5b6000819050919050565b610b6f81610b5c565b8114610b7a57600080fd5b50565b600081359050610b8c81610b66565b92915050565b600060208284031215610ba857610ba7610b57565b5b6000610bb684828501610b7d565b91505092915050565b6000819050919050565b610bd281610bbf565b82525050565b6000602082019050610bed6000830184610bc9565b92915050565b600073ffffffffffffffffffffffffffffffffffffffff82169050919050565b6000610c1e82610bf3565b9050919050565b610c2e81610c13565b82525050565b610c3d81610b5c565b82525050565b6000604082019050610c586000830185610c25565b610c656020830184610c34565b9392505050565b6000602082019050610c816000830184610c34565b92915050565b6000610c9282610bf3565b9050919050565b610ca281610c87565b82525050565b6000602082019050610cbd6000830184610c99565b92915050565b6000819050919050565b6000610ce8610ce3610cde84610bf3565b610cc3565b610bf3565b9050919050565b6000610cfa82610ccd565b9050919050565b6000610d0c82610cef565b9050919050565b610d1c81610d01565b82525050565b6000602082019050610d376000830184610d13565b92915050565b6000602082019050610d526000830184610c25565b92915050565b600081519050610d6781610b66565b92915050565b600060208284031215610d8357610d82610b57565b5b6000610d9184828501610d58565b91505092915050565b60008115159050919050565b610daf81610d9a565b8114610dba57600080fd5b50565b600081519050610dcc81610da6565b92915050565b600060208284031215610de857610de7610b57565b5b6000610df684828501610dbd565b91505092915050565b7f4e487b7100000000000000000000000000000000000000000000000000000000600052601160045260246000fd5b6000610e3982610b5c565b9150610e4483610b5c565b9250828201905080821115610e5c57610e5b610dff565b5b92915050565b6000610e6d82610b5c565b91507fffffffffffffffffffffffffffffffffffffffffffffffffffffffffffffffff8203610e9f57610e9e610dff565b5b600182019050919050565b6000610eb582610cef565b9050919050565b610ec581610eaa565b82525050565b6000604082019050610ee06000830185610ebc565b610eed6020830184610c34565b9392505050565b7f4e487b7100000000000000000000000000000000000000000000000000000000600052601260045260246000fd5b6000610f2e82610bbf565b9150610f3983610bbf565b925082610f4957610f48610ef4565b5b600160000383147f800000000000000000000000000000000000000000000000000000000000000083141615610f8257610f81610dff565b5b828205905092915050565b600069ffffffffffffffffffff82169050919050565b610fac81610f8d565b8114610fb757600080fd5b50565b600081519050610fc981610fa3565b92915050565b610fd881610bbf565b8114610fe357600080fd5b50565b600081519050610ff581610fcf565b92915050565b600080600080600060a0868803121561101757611016610b57565b5b600061102588828901610fba565b955050602061103688828901610fe6565b945050604061104788828901610d58565b935050606061105888828901610d58565b925050608061106988828901610fba565b9150509295509295909350565b600061108182610b5c565b915061108c83610b5c565b92508261109c5761109b610ef4565b5b828204905092915050565b7f4e487b7100000000000000000000000000000000000000000000000000000000600052604160045260246000fd5b60006110e182610b5c565b91506110ec83610b5c565b925082820390508181111561110457611103610dff565b5b92915050565b600061111582610b5c565b915061112083610b5c565b9250826111305761112f610ef4565b5b828206905092915050565b7f4e487b7100000000000000000000000000000000000000000000000000000000600052603260045260246000fdfea2646970667358221220b54ff614d5da46d18faa1048378d4d5a3621f876261fed95a3ff850dba34e40964736f6c63430008100033",
  "immutableReferences": {},
  "source": "// SPDX-License-Identifier: MIT\r\npragma solidity ^0.8.16; \r\n\r\nimport './BianToken.sol';\r\nimport \"@chainlink/contracts/src/v0.8/interfaces/AggregatorV3Interface.sol\";\r\nimport \"@openzeppelin/contracts/utils/Strings.sol\";\r\n\r\n\r\n\r\ncontract BianTokenSale {\r\n    address payable public admin;\r\n    // ethFunds is like the reserve ?? \r\n    address payable private ethFunds = payable(address(this));\r\n    BianToken public token;\r\n    uint256 public tokensSold; \r\n    int public tokenPriceUSD;\r\n    AggregatorV3Interface internal priceFeed;\r\n    \r\n    // initialized at 0. \r\n    uint256 public transactionCount; \r\n\r\n    event Sell(address _buyer, uint256 _amount); \r\n\r\n    struct Transaction {\r\n        address buyer;\r\n        uint256 amount;\r\n    }\r\n\r\n    mapping(uint256 => Transaction) public transaction;\r\n\r\n    constructor(BianToken _token) {\r\n        priceFeed = AggregatorV3Interface(0x5f4eC3Df9cbd43714FE2740f5E3616155c5b8419); \r\n        tokenPriceUSD = 5;\r\n        token = _token;\r\n        admin = payable(msg.sender); \r\n    }\r\n\r\n   function getETHPrice() public view returns (int) {\r\n        (, int price, , , ) = priceFeed.latestRoundData();\r\n        return (price / 10**8);\r\n    }\r\n\r\n    function bianTokenPriceInETH() public view returns(int) {\r\n        int ethPrice = getETHPrice();\r\n        return tokenPriceUSD / ethPrice;\r\n    }\r\n\r\n    function getBianBalance() public view returns(string memory) {\r\n        return Strings.toString(IERC20(address(token)).balanceOf(address(this))); \r\n    }\r\n\r\n\r\n\r\n    function buyToken(uint256 _amount) public payable {\r\n        // int bianTokenPriceETH = bianTokenPriceInETH();\r\n        // require(int(msg.value) >= bianTokenPriceETH * int(_amount)); \r\n        require(token.balanceOf(address(this)) >= _amount);\r\n       \r\n        // OpenZeppelin transfer() function is defined as follows:\r\n        /* \r\n            function transfer(address to, uint256 amount) public virtual override returns (bool) {\r\n\r\n            } \r\n\r\n\r\n\r\n        */ \r\n\r\n        // following needs to be true.\r\n\r\n        // buyer receiving token from buyer? \r\n        require(token.transfer(msg.sender, _amount));\r\n        \r\n        // vault receiving eth from buyer? \r\n        ethFunds.transfer(msg.value);\r\n        tokensSold += _amount; \r\n        transaction[transactionCount] = Transaction(msg.sender, _amount);\r\n        transactionCount++;\r\n        emit Sell(msg.sender, _amount); \r\n    }\r\n\r\n    function endSale() public {\r\n        // only the admin can self destruct. \r\n        require(msg.sender == admin);\r\n        uint256 amount = token.balanceOf(address(this));\r\n        require(token.transfer(admin, amount)); \r\n        selfdestruct(payable(admin));\r\n    }\r\n\r\n    receive() external payable {\r\n\r\n    }\r\n\r\n}",
  "sourcePath": "C:\\Users\\19494\\Desktop\\BianToken\\contracts\\BianTokenSale.sol",
  "compiler": {
    "name": "solc",
    "version": "0.8.16+commit.07a7930e.Emscripten.clang"
  },
  "schemaVersion": "3.4.9",
  "updatedAt": "2022-09-10T00:37:25.782Z",
  "networkType": "ethereum",
  "devdoc": {
    "kind": "dev",
    "methods": {},
    "version": 1
  },
  "userdoc": {
    "kind": "user",
    "methods": {},
    "version": 1
  }
}