{
  "contractName": "BianTokenSale",
  "abi": [
    {
      "inputs": [
        {
          "internalType": "contract BianToken",
          "name": "_token",
          "type": "address"
        }
      ],
      "stateMutability": "nonpayable",
      "type": "constructor"
    },
    {
      "anonymous": false,
      "inputs": [
        {
          "indexed": false,
          "internalType": "address",
          "name": "_buyer",
          "type": "address"
        },
        {
          "indexed": false,
          "internalType": "uint256",
          "name": "_amount",
          "type": "uint256"
        }
      ],
      "name": "Sell",
      "type": "event"
    },
    {
      "inputs": [],
      "name": "admin",
      "outputs": [
        {
          "internalType": "address payable",
          "name": "",
          "type": "address"
        }
      ],
      "stateMutability": "view",
      "type": "function",
      "constant": true
    },
    {
      "inputs": [],
      "name": "token",
      "outputs": [
        {
          "internalType": "contract BianToken",
          "name": "",
          "type": "address"
        }
      ],
      "stateMutability": "view",
      "type": "function",
      "constant": true
    },
    {
      "inputs": [],
      "name": "tokenPriceUSD",
      "outputs": [
        {
          "internalType": "int256",
          "name": "",
          "type": "int256"
        }
      ],
      "stateMutability": "view",
      "type": "function",
      "constant": true
    },
    {
      "inputs": [],
      "name": "tokensSold",
      "outputs": [
        {
          "internalType": "uint256",
          "name": "",
          "type": "uint256"
        }
      ],
      "stateMutability": "view",
      "type": "function",
      "constant": true
    },
    {
      "inputs": [
        {
          "internalType": "uint256",
          "name": "",
          "type": "uint256"
        }
      ],
      "name": "transaction",
      "outputs": [
        {
          "internalType": "address",
          "name": "buyer",
          "type": "address"
        },
        {
          "internalType": "uint256",
          "name": "amount",
          "type": "uint256"
        }
      ],
      "stateMutability": "view",
      "type": "function",
      "constant": true
    },
    {
      "inputs": [],
      "name": "transactionCount",
      "outputs": [
        {
          "internalType": "uint256",
          "name": "",
          "type": "uint256"
        }
      ],
      "stateMutability": "view",
      "type": "function",
      "constant": true
    },
    {
      "stateMutability": "payable",
      "type": "receive",
      "payable": true
    },
    {
      "inputs": [],
      "name": "getETHPrice",
      "outputs": [
        {
          "internalType": "int256",
          "name": "",
          "type": "int256"
        }
      ],
      "stateMutability": "view",
      "type": "function",
      "constant": true
    },
    {
      "inputs": [],
      "name": "bianTokenPriceInETH",
      "outputs": [
        {
          "internalType": "int256",
          "name": "",
          "type": "int256"
        }
      ],
      "stateMutability": "view",
      "type": "function",
      "constant": true
    },
    {
      "inputs": [],
      "name": "getETHBalance",
      "outputs": [
        {
          "internalType": "uint256",
          "name": "",
          "type": "uint256"
        }
      ],
      "stateMutability": "view",
      "type": "function",
      "constant": true
    },
    {
      "inputs": [],
      "name": "getBianBalance",
      "outputs": [
        {
          "internalType": "string",
          "name": "",
          "type": "string"
        }
      ],
      "stateMutability": "view",
      "type": "function",
      "constant": true
    },
    {
      "inputs": [
        {
          "internalType": "uint256",
          "name": "_amount",
          "type": "uint256"
        }
      ],
      "name": "buyToken",
      "outputs": [],
      "stateMutability": "payable",
      "type": "function",
      "payable": true
    },
    {
      "inputs": [
        {
          "internalType": "uint256",
          "name": "_amount",
          "type": "uint256"
        }
      ],
      "name": "approveAddress",
      "outputs": [],
      "stateMutability": "nonpayable",
      "type": "function"
    },
    {
      "inputs": [
        {
          "internalType": "uint256",
          "name": "_bianInput",
          "type": "uint256"
        },
        {
          "internalType": "uint256",
          "name": "_ethReceive",
          "type": "uint256"
        }
      ],
      "name": "buyETHWithBian",
      "outputs": [],
      "stateMutability": "payable",
      "type": "function",
      "payable": true
    },
    {
      "inputs": [],
      "name": "endSale",
      "outputs": [],
      "stateMutability": "nonpayable",
      "type": "function"
    }
  ],
  "bytecode": "0x608060405230600160006101000a81548173ffffffffffffffffffffffffffffffffffffffff021916908373ffffffffffffffffffffffffffffffffffffffff1602179055503480156200005257600080fd5b5060405162001685380380620016858339818101604052810190620000789190620001db565b735f4ec3df9cbd43714fe2740f5e3616155c5b8419600560006101000a81548173ffffffffffffffffffffffffffffffffffffffff021916908373ffffffffffffffffffffffffffffffffffffffff160217905550600560048190555080600260006101000a81548173ffffffffffffffffffffffffffffffffffffffff021916908373ffffffffffffffffffffffffffffffffffffffff160217905550336000806101000a81548173ffffffffffffffffffffffffffffffffffffffff021916908373ffffffffffffffffffffffffffffffffffffffff160217905550506200020d565b600080fd5b600073ffffffffffffffffffffffffffffffffffffffff82169050919050565b60006200018f8262000162565b9050919050565b6000620001a38262000182565b9050919050565b620001b58162000196565b8114620001c157600080fd5b50565b600081519050620001d581620001aa565b92915050565b600060208284031215620001f457620001f36200015d565b5b60006200020484828501620001c4565b91505092915050565b611468806200021d6000396000f3fe6080604052600436106100e05760003560e01c80636e9472981161007f578063a607a8d911610059578063a607a8d914610279578063b77bf600146102a4578063f851a440146102cf578063fc0c546a146102fa576100e7565b80636e9472981461020757806370c9053f1461023257806373485ba81461024e576100e7565b8063380d831b116100bb578063380d831b1461015c578063407fcc311461017357806346bd08411461019e578063518ab2a8146101dc576100e7565b80624e9222146100ec57806325af741c146101175780632d296bf114610140576100e7565b366100e757005b600080fd5b3480156100f857600080fd5b50610101610325565b60405161010e9190610d86565b60405180910390f35b34801561012357600080fd5b5061013e60048036038101906101399190610de3565b6103d0565b005b61015a60048036038101906101559190610de3565b610474565b005b34801561016857600080fd5b5061017161072f565b005b34801561017f57600080fd5b50610188610929565b6040516101959190610e29565b60405180910390f35b3480156101aa57600080fd5b506101c560048036038101906101c09190610de3565b61092f565b6040516101d3929190610e94565b60405180910390f35b3480156101e857600080fd5b506101f1610973565b6040516101fe9190610ebd565b60405180910390f35b34801561021357600080fd5b5061021c610979565b6040516102299190610ebd565b60405180910390f35b61024c60048036038101906102479190610ed8565b610981565b005b34801561025a57600080fd5b50610263610a75565b6040516102709190610e29565b60405180910390f35b34801561028557600080fd5b5061028e610a96565b60405161029b9190610e29565b60405180910390f35b3480156102b057600080fd5b506102b9610b46565b6040516102c69190610ebd565b60405180910390f35b3480156102db57600080fd5b506102e4610b4c565b6040516102f19190610f39565b60405180910390f35b34801561030657600080fd5b5061030f610b70565b60405161031c9190610fb3565b60405180910390f35b60606103cb600260009054906101000a900473ffffffffffffffffffffffffffffffffffffffff1673ffffffffffffffffffffffffffffffffffffffff166370a08231306040518263ffffffff1660e01b81526004016103859190610fce565b602060405180830381865afa1580156103a2573d6000803e3d6000fd5b505050506040513d601f19601f820116820180604052508101906103c69190610ffe565b610b96565b905090565b600260009054906101000a900473ffffffffffffffffffffffffffffffffffffffff1673ffffffffffffffffffffffffffffffffffffffff1663095ea7b333836040518363ffffffff1660e01b815260040161042d929190610e94565b6020604051808303816000875af115801561044c573d6000803e3d6000fd5b505050506040513d601f19601f820116820180604052508101906104709190611063565b5050565b80600260009054906101000a900473ffffffffffffffffffffffffffffffffffffffff1673ffffffffffffffffffffffffffffffffffffffff166370a08231306040518263ffffffff1660e01b81526004016104d09190610fce565b602060405180830381865afa1580156104ed573d6000803e3d6000fd5b505050506040513d601f19601f820116820180604052508101906105119190610ffe565b101561051c57600080fd5b600260009054906101000a900473ffffffffffffffffffffffffffffffffffffffff1673ffffffffffffffffffffffffffffffffffffffff1663a9059cbb33836040518363ffffffff1660e01b8152600401610579929190610e94565b6020604051808303816000875af1158015610598573d6000803e3d6000fd5b505050506040513d601f19601f820116820180604052508101906105bc9190611063565b6105c557600080fd5b600160009054906101000a900473ffffffffffffffffffffffffffffffffffffffff1673ffffffffffffffffffffffffffffffffffffffff166108fc349081150290604051600060405180830381858888f1935050505015801561062d573d6000803e3d6000fd5b50806003600082825461064091906110bf565b9250508190555060405180604001604052803373ffffffffffffffffffffffffffffffffffffffff1681526020018281525060076000600654815260200190815260200160002060008201518160000160006101000a81548173ffffffffffffffffffffffffffffffffffffffff021916908373ffffffffffffffffffffffffffffffffffffffff16021790555060208201518160010155905050600660008154809291906106ee906110f3565b91905055507f5e5e995ce3133561afceaa51a9a154d5db228cd7525d34df5185582c18d3df093382604051610724929190610e94565b60405180910390a150565b60008054906101000a900473ffffffffffffffffffffffffffffffffffffffff1673ffffffffffffffffffffffffffffffffffffffff163373ffffffffffffffffffffffffffffffffffffffff161461078757600080fd5b6000600260009054906101000a900473ffffffffffffffffffffffffffffffffffffffff1673ffffffffffffffffffffffffffffffffffffffff166370a08231306040518263ffffffff1660e01b81526004016107e49190610fce565b602060405180830381865afa158015610801573d6000803e3d6000fd5b505050506040513d601f19601f820116820180604052508101906108259190610ffe565b9050600260009054906101000a900473ffffffffffffffffffffffffffffffffffffffff1673ffffffffffffffffffffffffffffffffffffffff1663a9059cbb60008054906101000a900473ffffffffffffffffffffffffffffffffffffffff16836040518363ffffffff1660e01b81526004016108a492919061115c565b6020604051808303816000875af11580156108c3573d6000803e3d6000fd5b505050506040513d601f19601f820116820180604052508101906108e79190611063565b6108f057600080fd5b60008054906101000a900473ffffffffffffffffffffffffffffffffffffffff1673ffffffffffffffffffffffffffffffffffffffff16ff5b60045481565b60076020528060005260406000206000915090508060000160009054906101000a900473ffffffffffffffffffffffffffffffffffffffff16908060010154905082565b60035481565b600047905090565b600260009054906101000a900473ffffffffffffffffffffffffffffffffffffffff1673ffffffffffffffffffffffffffffffffffffffff166323b872dd3330856040518463ffffffff1660e01b81526004016109e093929190611185565b6020604051808303816000875af11580156109ff573d6000803e3d6000fd5b505050506040513d601f19601f82011682018060405250810190610a239190611063565b5060003390508073ffffffffffffffffffffffffffffffffffffffff166108fc839081150290604051600060405180830381858888f19350505050158015610a6f573d6000803e3d6000fd5b50505050565b600080610a80610a96565b905080600454610a9091906111eb565b91505090565b600080600560009054906101000a900473ffffffffffffffffffffffffffffffffffffffff1673ffffffffffffffffffffffffffffffffffffffff1663feaf968c6040518163ffffffff1660e01b815260040160a060405180830381865afa158015610b06573d6000803e3d6000fd5b505050506040513d601f19601f82011682018060405250810190610b2a91906112c3565b5050509150506305f5e10081610b4091906111eb565b91505090565b60065481565b60008054906101000a900473ffffffffffffffffffffffffffffffffffffffff1681565b600260009054906101000a900473ffffffffffffffffffffffffffffffffffffffff1681565b606060008203610bdd576040518060400160405280600181526020017f30000000000000000000000000000000000000000000000000000000000000008152509050610cf1565b600082905060005b60008214610c0f578080610bf8906110f3565b915050600a82610c08919061133e565b9150610be5565b60008167ffffffffffffffff811115610c2b57610c2a61136f565b5b6040519080825280601f01601f191660200182016040528015610c5d5781602001600182028036833780820191505090505b5090505b60008514610cea57600182610c76919061139e565b9150600a85610c8591906113d2565b6030610c9191906110bf565b60f81b818381518110610ca757610ca6611403565b5b60200101907effffffffffffffffffffffffffffffffffffffffffffffffffffffffffffff1916908160001a905350600a85610ce3919061133e565b9450610c61565b8093505050505b919050565b600081519050919050565b600082825260208201905092915050565b60005b83811015610d30578082015181840152602081019050610d15565b60008484015250505050565b6000601f19601f8301169050919050565b6000610d5882610cf6565b610d628185610d01565b9350610d72818560208601610d12565b610d7b81610d3c565b840191505092915050565b60006020820190508181036000830152610da08184610d4d565b905092915050565b600080fd5b6000819050919050565b610dc081610dad565b8114610dcb57600080fd5b50565b600081359050610ddd81610db7565b92915050565b600060208284031215610df957610df8610da8565b5b6000610e0784828501610dce565b91505092915050565b6000819050919050565b610e2381610e10565b82525050565b6000602082019050610e3e6000830184610e1a565b92915050565b600073ffffffffffffffffffffffffffffffffffffffff82169050919050565b6000610e6f82610e44565b9050919050565b610e7f81610e64565b82525050565b610e8e81610dad565b82525050565b6000604082019050610ea96000830185610e76565b610eb66020830184610e85565b9392505050565b6000602082019050610ed26000830184610e85565b92915050565b60008060408385031215610eef57610eee610da8565b5b6000610efd85828601610dce565b9250506020610f0e85828601610dce565b9150509250929050565b6000610f2382610e44565b9050919050565b610f3381610f18565b82525050565b6000602082019050610f4e6000830184610f2a565b92915050565b6000819050919050565b6000610f79610f74610f6f84610e44565b610f54565b610e44565b9050919050565b6000610f8b82610f5e565b9050919050565b6000610f9d82610f80565b9050919050565b610fad81610f92565b82525050565b6000602082019050610fc86000830184610fa4565b92915050565b6000602082019050610fe36000830184610e76565b92915050565b600081519050610ff881610db7565b92915050565b60006020828403121561101457611013610da8565b5b600061102284828501610fe9565b91505092915050565b60008115159050919050565b6110408161102b565b811461104b57600080fd5b50565b60008151905061105d81611037565b92915050565b60006020828403121561107957611078610da8565b5b60006110878482850161104e565b91505092915050565b7f4e487b7100000000000000000000000000000000000000000000000000000000600052601160045260246000fd5b60006110ca82610dad565b91506110d583610dad565b92508282019050808211156110ed576110ec611090565b5b92915050565b60006110fe82610dad565b91507fffffffffffffffffffffffffffffffffffffffffffffffffffffffffffffffff82036111305761112f611090565b5b600182019050919050565b600061114682610f80565b9050919050565b6111568161113b565b82525050565b6000604082019050611171600083018561114d565b61117e6020830184610e85565b9392505050565b600060608201905061119a6000830186610e76565b6111a76020830185610e76565b6111b46040830184610e85565b949350505050565b7f4e487b7100000000000000000000000000000000000000000000000000000000600052601260045260246000fd5b60006111f682610e10565b915061120183610e10565b925082611211576112106111bc565b5b600160000383147f80000000000000000000000000000000000000000000000000000000000000008314161561124a57611249611090565b5b828205905092915050565b600069ffffffffffffffffffff82169050919050565b61127481611255565b811461127f57600080fd5b50565b6000815190506112918161126b565b92915050565b6112a081610e10565b81146112ab57600080fd5b50565b6000815190506112bd81611297565b92915050565b600080600080600060a086880312156112df576112de610da8565b5b60006112ed88828901611282565b95505060206112fe888289016112ae565b945050604061130f88828901610fe9565b935050606061132088828901610fe9565b925050608061133188828901611282565b9150509295509295909350565b600061134982610dad565b915061135483610dad565b925082611364576113636111bc565b5b828204905092915050565b7f4e487b7100000000000000000000000000000000000000000000000000000000600052604160045260246000fd5b60006113a982610dad565b91506113b483610dad565b92508282039050818111156113cc576113cb611090565b5b92915050565b60006113dd82610dad565b91506113e883610dad565b9250826113f8576113f76111bc565b5b828206905092915050565b7f4e487b7100000000000000000000000000000000000000000000000000000000600052603260045260246000fdfea2646970667358221220382659f07bc414628e55d45dfc5c797d791e633857a1fd4efe7c19a02ff027b364736f6c63430008100033",
  "immutableReferences": {},
  "source": "// SPDX-License-Identifier: MIT\r\npragma solidity ^0.8.16; \r\n\r\nimport './BianToken.sol';\r\nimport \"@chainlink/contracts/src/v0.8/interfaces/AggregatorV3Interface.sol\";\r\nimport \"@openzeppelin/contracts/utils/Strings.sol\";\r\n\r\n\r\n\r\ncontract BianTokenSale {\r\n    address payable public admin;\r\n    // ethFunds is like the reserve ?? \r\n    address payable private ethFunds = payable(address(this));\r\n    BianToken public token;\r\n    uint256 public tokensSold; \r\n    int public tokenPriceUSD;\r\n    AggregatorV3Interface internal priceFeed;\r\n    \r\n    // initialized at 0. \r\n    uint256 public transactionCount; \r\n\r\n    event Sell(address _buyer, uint256 _amount); \r\n\r\n    struct Transaction {\r\n        address buyer;\r\n        uint256 amount;\r\n    }\r\n\r\n    mapping(uint256 => Transaction) public transaction;\r\n\r\n    constructor(BianToken _token) {\r\n        priceFeed = AggregatorV3Interface(0x5f4eC3Df9cbd43714FE2740f5E3616155c5b8419); \r\n        tokenPriceUSD = 5;\r\n        token = _token;\r\n        admin = payable(msg.sender); \r\n    }\r\n\r\n   function getETHPrice() public view returns (int) {\r\n        (, int price, , , ) = priceFeed.latestRoundData();\r\n        return (price / 10**8);\r\n    }\r\n\r\n    function bianTokenPriceInETH() public view returns(int) {\r\n        int ethPrice = getETHPrice();\r\n        return tokenPriceUSD / ethPrice;\r\n    }\r\n\r\n    function getETHBalance() public view returns(uint256) {\r\n        return address(this).balance; \r\n    }\r\n\r\n    function getBianBalance() public view returns(string memory) {\r\n        return Strings.toString(IERC20(address(token)).balanceOf(address(this))); \r\n    }\r\n\r\n    // ETH --> BIAN\r\n    function buyToken(uint256 _amount) public payable {\r\n        // int bianTokenPriceETH = bianTokenPriceInETH();\r\n        // require(int(msg.value) >= bianTokenPriceETH * int(_amount)); \r\n        require(token.balanceOf(address(this)) >= _amount);\r\n       \r\n        // buyer receiving token from vault? \r\n        require(token.transfer(msg.sender, _amount));\r\n        // transfer the ETH of the buyer to us. \r\n        ethFunds.transfer(msg.value);\r\n\r\n        tokensSold += _amount; \r\n        transaction[transactionCount] = Transaction(msg.sender, _amount);\r\n        transactionCount++;\r\n        emit Sell(msg.sender, _amount); \r\n    }\r\n\r\n    function approveAddress(uint256 _amount) public {\r\n        token.approve(msg.sender, _amount); \r\n    }\r\n\r\n\r\n\r\n    // BIAN --> ETH\r\n    function buyETHWithBian(uint256 _bianInput, uint256 _ethReceive) public payable {\r\n       \r\n        // token.approve(address(this), _bianInput);\r\n        token.transferFrom(msg.sender, address(this), _bianInput);\r\n        address payable receiver = payable(msg.sender);\r\n        receiver.transfer(_ethReceive); \r\n\r\n\r\n       /* \r\n     // int bianTokenPriceETH = bianTokenPriceInETH();\r\n        // require(int(msg.value) >= bianTokenPriceETH * int(_amount)); \r\n   \r\n        // IERC20(token).transferFrom(msg.sender, address(this), _amount);\r\n        token.approve(msg.sender, msg.value); \r\n        token.transferFrom(msg.sender, address(this), msg.value); \r\n        require(_amount > 0); \r\n        // require(token.transfer(address(this), msg.value)); \r\n        // ethFunds.transfer(msg.sender, _amount); \r\n    */ \r\n\r\n\r\n    }\r\n\r\n    function endSale() public {\r\n        // only the admin can self destruct. \r\n        require(msg.sender == admin);\r\n        uint256 amount = token.balanceOf(address(this));\r\n        require(token.transfer(admin, amount)); \r\n        selfdestruct(payable(admin));\r\n    }\r\n\r\n    receive() external payable {\r\n\r\n    }\r\n\r\n}",
  "sourcePath": "C:\\Users\\bosto\\Desktop\\ERC20-Project\\contracts\\BianTokenSale.sol",
  "compiler": {
    "name": "solc",
    "version": "0.8.16+commit.07a7930e.Emscripten.clang"
  },
  "schemaVersion": "3.4.9",
  "updatedAt": "2022-09-12T06:36:36.196Z",
  "networkType": "ethereum",
  "devdoc": {
    "kind": "dev",
    "methods": {},
    "version": 1
  },
  "userdoc": {
    "kind": "user",
    "methods": {},
    "version": 1
  }
}