{
  "contractName": "BianTokenSale",
  "abi": [
    {
      "inputs": [
        {
          "internalType": "contract BianToken",
          "name": "_token",
          "type": "address"
        }
      ],
      "stateMutability": "nonpayable",
      "type": "constructor"
    },
    {
      "anonymous": false,
      "inputs": [
        {
          "indexed": false,
          "internalType": "address",
          "name": "_buyer",
          "type": "address"
        },
        {
          "indexed": false,
          "internalType": "uint256",
          "name": "_amount",
          "type": "uint256"
        }
      ],
      "name": "Sell",
      "type": "event"
    },
    {
      "inputs": [],
      "name": "admin",
      "outputs": [
        {
          "internalType": "address payable",
          "name": "",
          "type": "address"
        }
      ],
      "stateMutability": "view",
      "type": "function"
    },
    {
      "inputs": [],
      "name": "token",
      "outputs": [
        {
          "internalType": "contract BianToken",
          "name": "",
          "type": "address"
        }
      ],
      "stateMutability": "view",
      "type": "function"
    },
    {
      "inputs": [],
      "name": "tokenPriceUSD",
      "outputs": [
        {
          "internalType": "int256",
          "name": "",
          "type": "int256"
        }
      ],
      "stateMutability": "view",
      "type": "function"
    },
    {
      "inputs": [],
      "name": "tokensSold",
      "outputs": [
        {
          "internalType": "uint256",
          "name": "",
          "type": "uint256"
        }
      ],
      "stateMutability": "view",
      "type": "function"
    },
    {
      "inputs": [
        {
          "internalType": "uint256",
          "name": "",
          "type": "uint256"
        }
      ],
      "name": "transaction",
      "outputs": [
        {
          "internalType": "address",
          "name": "buyer",
          "type": "address"
        },
        {
          "internalType": "uint256",
          "name": "amount",
          "type": "uint256"
        }
      ],
      "stateMutability": "view",
      "type": "function"
    },
    {
      "inputs": [],
      "name": "transactionCount",
      "outputs": [
        {
          "internalType": "uint256",
          "name": "",
          "type": "uint256"
        }
      ],
      "stateMutability": "view",
      "type": "function"
    },
    {
      "stateMutability": "payable",
      "type": "receive"
    },
    {
      "inputs": [],
      "name": "getETHBalance",
      "outputs": [
        {
          "internalType": "uint256",
          "name": "",
          "type": "uint256"
        }
      ],
      "stateMutability": "view",
      "type": "function"
    },
    {
      "inputs": [],
      "name": "getBianBalance",
      "outputs": [
        {
          "internalType": "string",
          "name": "",
          "type": "string"
        }
      ],
      "stateMutability": "view",
      "type": "function"
    },
    {
      "inputs": [
        {
          "internalType": "uint256",
          "name": "_amount",
          "type": "uint256"
        }
      ],
      "name": "buyToken",
      "outputs": [],
      "stateMutability": "payable",
      "type": "function"
    },
    {
      "inputs": [
        {
          "internalType": "uint256",
          "name": "_amount",
          "type": "uint256"
        }
      ],
      "name": "approveAddress",
      "outputs": [],
      "stateMutability": "nonpayable",
      "type": "function"
    },
    {
      "inputs": [
        {
          "internalType": "uint256",
          "name": "_bianInput",
          "type": "uint256"
        },
        {
          "internalType": "uint256",
          "name": "_ethReceive",
          "type": "uint256"
        }
      ],
      "name": "buyETHWithBian",
      "outputs": [],
      "stateMutability": "payable",
      "type": "function"
    },
    {
      "inputs": [],
      "name": "endSale",
      "outputs": [],
      "stateMutability": "nonpayable",
      "type": "function"
    }
  ],
  "bytecode": "0x608060405230600160006101000a81548173ffffffffffffffffffffffffffffffffffffffff021916908373ffffffffffffffffffffffffffffffffffffffff1602179055503480156200005257600080fd5b5060405162001260380380620012608339818101604052810190620000789190620001db565b735f4ec3df9cbd43714fe2740f5e3616155c5b8419600560006101000a81548173ffffffffffffffffffffffffffffffffffffffff021916908373ffffffffffffffffffffffffffffffffffffffff160217905550600560048190555080600260006101000a81548173ffffffffffffffffffffffffffffffffffffffff021916908373ffffffffffffffffffffffffffffffffffffffff160217905550336000806101000a81548173ffffffffffffffffffffffffffffffffffffffff021916908373ffffffffffffffffffffffffffffffffffffffff160217905550506200020d565b600080fd5b600073ffffffffffffffffffffffffffffffffffffffff82169050919050565b60006200018f8262000162565b9050919050565b6000620001a38262000182565b9050919050565b620001b58162000196565b8114620001c157600080fd5b50565b600081519050620001d581620001aa565b92915050565b600060208284031215620001f457620001f36200015d565b5b60006200020484828501620001c4565b91505092915050565b611043806200021d6000396000f3fe6080604052600436106100aa5760003560e01c8063518ab2a811610064578063518ab2a8146101a65780636e947298146101d157806370c9053f146101fc578063b77bf60014610218578063f851a44014610243578063fc0c546a1461026e576100b1565b80624e9222146100b657806325af741c146100e15780632d296bf11461010a578063380d831b14610126578063407fcc311461013d57806346bd084114610168576100b1565b366100b157005b600080fd5b3480156100c257600080fd5b506100cb610299565b6040516100d89190610ab4565b60405180910390f35b3480156100ed57600080fd5b5061010860048036038101906101039190610b11565b610344565b005b610124600480360381019061011f9190610b11565b6103e8565b005b34801561013257600080fd5b5061013b61052e565b005b34801561014957600080fd5b50610152610728565b60405161015f9190610b57565b60405180910390f35b34801561017457600080fd5b5061018f600480360381019061018a9190610b11565b61072e565b60405161019d929190610bc2565b60405180910390f35b3480156101b257600080fd5b506101bb610772565b6040516101c89190610beb565b60405180910390f35b3480156101dd57600080fd5b506101e6610778565b6040516101f39190610beb565b60405180910390f35b61021660048036038101906102119190610c06565b610780565b005b34801561022457600080fd5b5061022d610874565b60405161023a9190610beb565b60405180910390f35b34801561024f57600080fd5b5061025861087a565b6040516102659190610c67565b60405180910390f35b34801561027a57600080fd5b5061028361089e565b6040516102909190610ce1565b60405180910390f35b606061033f600260009054906101000a900473ffffffffffffffffffffffffffffffffffffffff1673ffffffffffffffffffffffffffffffffffffffff166370a08231306040518263ffffffff1660e01b81526004016102f99190610cfc565b602060405180830381865afa158015610316573d6000803e3d6000fd5b505050506040513d601f19601f8201168201806040525081019061033a9190610d2c565b6108c4565b905090565b600260009054906101000a900473ffffffffffffffffffffffffffffffffffffffff1673ffffffffffffffffffffffffffffffffffffffff1663095ea7b333836040518363ffffffff1660e01b81526004016103a1929190610bc2565b6020604051808303816000875af11580156103c0573d6000803e3d6000fd5b505050506040513d601f19601f820116820180604052508101906103e49190610d91565b5050565b600260009054906101000a900473ffffffffffffffffffffffffffffffffffffffff1673ffffffffffffffffffffffffffffffffffffffff1663a9059cbb33836040518363ffffffff1660e01b8152600401610445929190610bc2565b6020604051808303816000875af1158015610464573d6000803e3d6000fd5b505050506040513d601f19601f820116820180604052508101906104889190610d91565b50600160009054906101000a900473ffffffffffffffffffffffffffffffffffffffff1673ffffffffffffffffffffffffffffffffffffffff166108fc349081150290604051600060405180830381858888f193505050501580156104f1573d6000803e3d6000fd5b507f5e5e995ce3133561afceaa51a9a154d5db228cd7525d34df5185582c18d3df093382604051610523929190610bc2565b60405180910390a150565b60008054906101000a900473ffffffffffffffffffffffffffffffffffffffff1673ffffffffffffffffffffffffffffffffffffffff163373ffffffffffffffffffffffffffffffffffffffff161461058657600080fd5b6000600260009054906101000a900473ffffffffffffffffffffffffffffffffffffffff1673ffffffffffffffffffffffffffffffffffffffff166370a08231306040518263ffffffff1660e01b81526004016105e39190610cfc565b602060405180830381865afa158015610600573d6000803e3d6000fd5b505050506040513d601f19601f820116820180604052508101906106249190610d2c565b9050600260009054906101000a900473ffffffffffffffffffffffffffffffffffffffff1673ffffffffffffffffffffffffffffffffffffffff1663a9059cbb60008054906101000a900473ffffffffffffffffffffffffffffffffffffffff16836040518363ffffffff1660e01b81526004016106a3929190610ddf565b6020604051808303816000875af11580156106c2573d6000803e3d6000fd5b505050506040513d601f19601f820116820180604052508101906106e69190610d91565b6106ef57600080fd5b60008054906101000a900473ffffffffffffffffffffffffffffffffffffffff1673ffffffffffffffffffffffffffffffffffffffff16ff5b60045481565b60076020528060005260406000206000915090508060000160009054906101000a900473ffffffffffffffffffffffffffffffffffffffff16908060010154905082565b60035481565b600047905090565b600260009054906101000a900473ffffffffffffffffffffffffffffffffffffffff1673ffffffffffffffffffffffffffffffffffffffff166323b872dd3330856040518463ffffffff1660e01b81526004016107df93929190610e08565b6020604051808303816000875af11580156107fe573d6000803e3d6000fd5b505050506040513d601f19601f820116820180604052508101906108229190610d91565b5060003390508073ffffffffffffffffffffffffffffffffffffffff166108fc839081150290604051600060405180830381858888f1935050505015801561086e573d6000803e3d6000fd5b50505050565b60065481565b60008054906101000a900473ffffffffffffffffffffffffffffffffffffffff1681565b600260009054906101000a900473ffffffffffffffffffffffffffffffffffffffff1681565b60606000820361090b576040518060400160405280600181526020017f30000000000000000000000000000000000000000000000000000000000000008152509050610a1f565b600082905060005b6000821461093d57808061092690610e6e565b915050600a826109369190610ee5565b9150610913565b60008167ffffffffffffffff81111561095957610958610f16565b5b6040519080825280601f01601f19166020018201604052801561098b5781602001600182028036833780820191505090505b5090505b60008514610a18576001826109a49190610f45565b9150600a856109b39190610f79565b60306109bf9190610faa565b60f81b8183815181106109d5576109d4610fde565b5b60200101907effffffffffffffffffffffffffffffffffffffffffffffffffffffffffffff1916908160001a905350600a85610a119190610ee5565b945061098f565b8093505050505b919050565b600081519050919050565b600082825260208201905092915050565b60005b83811015610a5e578082015181840152602081019050610a43565b60008484015250505050565b6000601f19601f8301169050919050565b6000610a8682610a24565b610a908185610a2f565b9350610aa0818560208601610a40565b610aa981610a6a565b840191505092915050565b60006020820190508181036000830152610ace8184610a7b565b905092915050565b600080fd5b6000819050919050565b610aee81610adb565b8114610af957600080fd5b50565b600081359050610b0b81610ae5565b92915050565b600060208284031215610b2757610b26610ad6565b5b6000610b3584828501610afc565b91505092915050565b6000819050919050565b610b5181610b3e565b82525050565b6000602082019050610b6c6000830184610b48565b92915050565b600073ffffffffffffffffffffffffffffffffffffffff82169050919050565b6000610b9d82610b72565b9050919050565b610bad81610b92565b82525050565b610bbc81610adb565b82525050565b6000604082019050610bd76000830185610ba4565b610be46020830184610bb3565b9392505050565b6000602082019050610c006000830184610bb3565b92915050565b60008060408385031215610c1d57610c1c610ad6565b5b6000610c2b85828601610afc565b9250506020610c3c85828601610afc565b9150509250929050565b6000610c5182610b72565b9050919050565b610c6181610c46565b82525050565b6000602082019050610c7c6000830184610c58565b92915050565b6000819050919050565b6000610ca7610ca2610c9d84610b72565b610c82565b610b72565b9050919050565b6000610cb982610c8c565b9050919050565b6000610ccb82610cae565b9050919050565b610cdb81610cc0565b82525050565b6000602082019050610cf66000830184610cd2565b92915050565b6000602082019050610d116000830184610ba4565b92915050565b600081519050610d2681610ae5565b92915050565b600060208284031215610d4257610d41610ad6565b5b6000610d5084828501610d17565b91505092915050565b60008115159050919050565b610d6e81610d59565b8114610d7957600080fd5b50565b600081519050610d8b81610d65565b92915050565b600060208284031215610da757610da6610ad6565b5b6000610db584828501610d7c565b91505092915050565b6000610dc982610cae565b9050919050565b610dd981610dbe565b82525050565b6000604082019050610df46000830185610dd0565b610e016020830184610bb3565b9392505050565b6000606082019050610e1d6000830186610ba4565b610e2a6020830185610ba4565b610e376040830184610bb3565b949350505050565b7f4e487b7100000000000000000000000000000000000000000000000000000000600052601160045260246000fd5b6000610e7982610adb565b91507fffffffffffffffffffffffffffffffffffffffffffffffffffffffffffffffff8203610eab57610eaa610e3f565b5b600182019050919050565b7f4e487b7100000000000000000000000000000000000000000000000000000000600052601260045260246000fd5b6000610ef082610adb565b9150610efb83610adb565b925082610f0b57610f0a610eb6565b5b828204905092915050565b7f4e487b7100000000000000000000000000000000000000000000000000000000600052604160045260246000fd5b6000610f5082610adb565b9150610f5b83610adb565b9250828203905081811115610f7357610f72610e3f565b5b92915050565b6000610f8482610adb565b9150610f8f83610adb565b925082610f9f57610f9e610eb6565b5b828206905092915050565b6000610fb582610adb565b9150610fc083610adb565b9250828201905080821115610fd857610fd7610e3f565b5b92915050565b7f4e487b7100000000000000000000000000000000000000000000000000000000600052603260045260246000fdfea264697066735822122011925b76c27e6e51e25724f7bb960f54fed62830154f2556263172703ef7fb4464736f6c63430008100033",
  "immutableReferences": {},
  "source": "// SPDX-License-Identifier: MIT\r\npragma solidity ^0.8.16; \r\n\r\nimport './BianToken.sol';\r\nimport \"@chainlink/contracts/src/v0.8/interfaces/AggregatorV3Interface.sol\";\r\nimport \"@openzeppelin/contracts/utils/Strings.sol\";\r\n\r\n\r\n\r\ncontract BianTokenSale {\r\n    address payable public admin;\r\n    // ethFunds is like the reserve ?? \r\n    address payable private ethFunds = payable(address(this));\r\n    BianToken public token;\r\n    uint256 public tokensSold; \r\n    int public tokenPriceUSD;\r\n    AggregatorV3Interface internal priceFeed;\r\n    \r\n    // initialized at 0. \r\n    uint256 public transactionCount; \r\n\r\n    event Sell(address _buyer, uint256 _amount); \r\n\r\n    struct Transaction {\r\n        address buyer;\r\n        uint256 amount;\r\n    }\r\n\r\n    mapping(uint256 => Transaction) public transaction;\r\n\r\n    constructor(BianToken _token) {\r\n        priceFeed = AggregatorV3Interface(0x5f4eC3Df9cbd43714FE2740f5E3616155c5b8419); \r\n        tokenPriceUSD = 5;\r\n        token = _token;\r\n        admin = payable(msg.sender); \r\n    }\r\n\r\n    function getETHBalance() public view returns(uint256) {\r\n        return address(this).balance; \r\n    }\r\n\r\n    function getBianBalance() public view returns(string memory) {\r\n        return Strings.toString(IERC20(address(token)).balanceOf(address(this))); \r\n    }\r\n\r\n    // ETH --> BIAN\r\n    function buyToken(uint256 _amount) public payable {\r\n        token.transfer(msg.sender, _amount);\r\n        ethFunds.transfer(msg.value);\r\n        emit Sell(msg.sender, _amount);\r\n    }\r\n\r\n    function approveAddress(uint256 _amount) public {\r\n        token.approve(msg.sender, _amount); \r\n    }\r\n\r\n    // BIAN --> ETH\r\n    function buyETHWithBian(uint256 _bianInput, uint256 _ethReceive) public payable {\r\n    \r\n        token.transferFrom(msg.sender, address(this), _bianInput);\r\n        address payable receiver = payable(msg.sender);\r\n        receiver.transfer(_ethReceive); \r\n    }\r\n\r\n    function endSale() public {\r\n        // only the admin can self destruct. \r\n        require(msg.sender == admin);\r\n        uint256 amount = token.balanceOf(address(this));\r\n        require(token.transfer(admin, amount)); \r\n        selfdestruct(payable(admin));\r\n    }\r\n\r\n    receive() external payable {\r\n\r\n    }\r\n\r\n}",
  "sourcePath": "C:\\Users\\bosto\\Desktop\\ERC20-Project\\contracts\\BianTokenSale.sol",
  "compiler": {
    "name": "solc",
    "version": "0.8.16+commit.07a7930e.Emscripten.clang"
  },
  "schemaVersion": "3.4.9",
  "updatedAt": "2022-11-06T23:32:06.505Z",
  "devdoc": {
    "kind": "dev",
    "methods": {},
    "version": 1
  },
  "userdoc": {
    "kind": "user",
    "methods": {},
    "version": 1
  }
}